{
  "address": "0xAFE3C788f03bBaB1a2C301EA65315f55bA42559d",
  "abi": [
    {
      "inputs": [
        {
          "internalType": "address",
          "name": "vrfCoordinator",
          "type": "address"
        },
        {
          "internalType": "uint64",
          "name": "subscriptionId",
          "type": "uint64"
        },
        {
          "internalType": "bytes32",
          "name": "gasLane",
          "type": "bytes32"
        },
        {
          "internalType": "uint32",
          "name": "callbackGasLimit",
          "type": "uint32"
        },
        {
          "internalType": "string[4]",
          "name": "heliosUris",
          "type": "string[4]"
        },
        {
          "internalType": "uint256",
          "name": "mintFee",
          "type": "uint256"
        }
      ],
      "stateMutability": "nonpayable",
      "type": "constructor"
    },
    {
      "inputs": [
        {
          "internalType": "address",
          "name": "have",
          "type": "address"
        },
        {
          "internalType": "address",
          "name": "want",
          "type": "address"
        }
      ],
      "name": "OnlyCoordinatorCanFulfill",
      "type": "error"
    },
    {
      "inputs": [],
      "name": "RadndomNft__WithdrawFailed",
      "type": "error"
    },
    {
      "inputs": [],
      "name": "RandomNft__InvalidMintingFee",
      "type": "error"
    },
    {
      "inputs": [],
      "name": "RandomNft__RarityOutOfBounds",
      "type": "error"
    },
    {
      "anonymous": false,
      "inputs": [
        {
          "indexed": true,
          "internalType": "address",
          "name": "owner",
          "type": "address"
        },
        {
          "indexed": true,
          "internalType": "address",
          "name": "approved",
          "type": "address"
        },
        {
          "indexed": true,
          "internalType": "uint256",
          "name": "tokenId",
          "type": "uint256"
        }
      ],
      "name": "Approval",
      "type": "event"
    },
    {
      "anonymous": false,
      "inputs": [
        {
          "indexed": true,
          "internalType": "address",
          "name": "owner",
          "type": "address"
        },
        {
          "indexed": true,
          "internalType": "address",
          "name": "operator",
          "type": "address"
        },
        {
          "indexed": false,
          "internalType": "bool",
          "name": "approved",
          "type": "bool"
        }
      ],
      "name": "ApprovalForAll",
      "type": "event"
    },
    {
      "anonymous": false,
      "inputs": [
        {
          "indexed": false,
          "internalType": "uint256",
          "name": "_fromTokenId",
          "type": "uint256"
        },
        {
          "indexed": false,
          "internalType": "uint256",
          "name": "_toTokenId",
          "type": "uint256"
        }
      ],
      "name": "BatchMetadataUpdate",
      "type": "event"
    },
    {
      "anonymous": false,
      "inputs": [
        {
          "indexed": false,
          "internalType": "uint256",
          "name": "_tokenId",
          "type": "uint256"
        }
      ],
      "name": "MetadataUpdate",
      "type": "event"
    },
    {
      "anonymous": false,
      "inputs": [
        {
          "indexed": false,
          "internalType": "enum RandomNft.Rarity",
          "name": "hiosRarity",
          "type": "uint8"
        },
        {
          "indexed": false,
          "internalType": "uint256",
          "name": "tokenId",
          "type": "uint256"
        },
        {
          "indexed": false,
          "internalType": "address",
          "name": "minter",
          "type": "address"
        }
      ],
      "name": "NftMinted",
      "type": "event"
    },
    {
      "anonymous": false,
      "inputs": [
        {
          "indexed": false,
          "internalType": "uint256",
          "name": "requestId",
          "type": "uint256"
        },
        {
          "indexed": false,
          "internalType": "address",
          "name": "requester",
          "type": "address"
        }
      ],
      "name": "NftRequested",
      "type": "event"
    },
    {
      "anonymous": false,
      "inputs": [
        {
          "indexed": true,
          "internalType": "address",
          "name": "previousOwner",
          "type": "address"
        },
        {
          "indexed": true,
          "internalType": "address",
          "name": "newOwner",
          "type": "address"
        }
      ],
      "name": "OwnershipTransferred",
      "type": "event"
    },
    {
      "anonymous": false,
      "inputs": [
        {
          "indexed": true,
          "internalType": "address",
          "name": "from",
          "type": "address"
        },
        {
          "indexed": true,
          "internalType": "address",
          "name": "to",
          "type": "address"
        },
        {
          "indexed": true,
          "internalType": "uint256",
          "name": "tokenId",
          "type": "uint256"
        }
      ],
      "name": "Transfer",
      "type": "event"
    },
    {
      "inputs": [
        {
          "internalType": "address",
          "name": "to",
          "type": "address"
        },
        {
          "internalType": "uint256",
          "name": "tokenId",
          "type": "uint256"
        }
      ],
      "name": "approve",
      "outputs": [],
      "stateMutability": "nonpayable",
      "type": "function"
    },
    {
      "inputs": [
        {
          "internalType": "address",
          "name": "owner",
          "type": "address"
        }
      ],
      "name": "balanceOf",
      "outputs": [
        {
          "internalType": "uint256",
          "name": "",
          "type": "uint256"
        }
      ],
      "stateMutability": "view",
      "type": "function"
    },
    {
      "inputs": [
        {
          "internalType": "uint256",
          "name": "tokenId",
          "type": "uint256"
        }
      ],
      "name": "getApproved",
      "outputs": [
        {
          "internalType": "address",
          "name": "",
          "type": "address"
        }
      ],
      "stateMutability": "view",
      "type": "function"
    },
    {
      "inputs": [],
      "name": "getMintingFee",
      "outputs": [
        {
          "internalType": "uint256",
          "name": "",
          "type": "uint256"
        }
      ],
      "stateMutability": "view",
      "type": "function"
    },
    {
      "inputs": [
        {
          "internalType": "uint256",
          "name": "rarityChance",
          "type": "uint256"
        }
      ],
      "name": "getRarityFromRandomWord",
      "outputs": [
        {
          "internalType": "enum RandomNft.Rarity",
          "name": "",
          "type": "uint8"
        }
      ],
      "stateMutability": "pure",
      "type": "function"
    },
    {
      "inputs": [],
      "name": "getTokenCounter",
      "outputs": [
        {
          "internalType": "uint256",
          "name": "",
          "type": "uint256"
        }
      ],
      "stateMutability": "view",
      "type": "function"
    },
    {
      "inputs": [
        {
          "internalType": "uint256",
          "name": "tokenId",
          "type": "uint256"
        }
      ],
      "name": "getTokenOwner",
      "outputs": [
        {
          "internalType": "address",
          "name": "",
          "type": "address"
        }
      ],
      "stateMutability": "view",
      "type": "function"
    },
    {
      "inputs": [
        {
          "internalType": "uint256",
          "name": "tokenIdx",
          "type": "uint256"
        }
      ],
      "name": "getTokenURI",
      "outputs": [
        {
          "internalType": "string",
          "name": "",
          "type": "string"
        }
      ],
      "stateMutability": "view",
      "type": "function"
    },
    {
      "inputs": [
        {
          "internalType": "address",
          "name": "owner",
          "type": "address"
        },
        {
          "internalType": "address",
          "name": "operator",
          "type": "address"
        }
      ],
      "name": "isApprovedForAll",
      "outputs": [
        {
          "internalType": "bool",
          "name": "",
          "type": "bool"
        }
      ],
      "stateMutability": "view",
      "type": "function"
    },
    {
      "inputs": [],
      "name": "name",
      "outputs": [
        {
          "internalType": "string",
          "name": "",
          "type": "string"
        }
      ],
      "stateMutability": "view",
      "type": "function"
    },
    {
      "inputs": [],
      "name": "owner",
      "outputs": [
        {
          "internalType": "address",
          "name": "",
          "type": "address"
        }
      ],
      "stateMutability": "view",
      "type": "function"
    },
    {
      "inputs": [
        {
          "internalType": "uint256",
          "name": "tokenId",
          "type": "uint256"
        }
      ],
      "name": "ownerOf",
      "outputs": [
        {
          "internalType": "address",
          "name": "",
          "type": "address"
        }
      ],
      "stateMutability": "view",
      "type": "function"
    },
    {
      "inputs": [
        {
          "internalType": "uint256",
          "name": "requestId",
          "type": "uint256"
        },
        {
          "internalType": "uint256[]",
          "name": "randomWords",
          "type": "uint256[]"
        }
      ],
      "name": "rawFulfillRandomWords",
      "outputs": [],
      "stateMutability": "nonpayable",
      "type": "function"
    },
    {
      "inputs": [],
      "name": "renounceOwnership",
      "outputs": [],
      "stateMutability": "nonpayable",
      "type": "function"
    },
    {
      "inputs": [],
      "name": "requestRandomNFT",
      "outputs": [
        {
          "internalType": "uint256",
          "name": "requestId",
          "type": "uint256"
        }
      ],
      "stateMutability": "payable",
      "type": "function"
    },
    {
      "inputs": [
        {
          "internalType": "address",
          "name": "from",
          "type": "address"
        },
        {
          "internalType": "address",
          "name": "to",
          "type": "address"
        },
        {
          "internalType": "uint256",
          "name": "tokenId",
          "type": "uint256"
        }
      ],
      "name": "safeTransferFrom",
      "outputs": [],
      "stateMutability": "nonpayable",
      "type": "function"
    },
    {
      "inputs": [
        {
          "internalType": "address",
          "name": "from",
          "type": "address"
        },
        {
          "internalType": "address",
          "name": "to",
          "type": "address"
        },
        {
          "internalType": "uint256",
          "name": "tokenId",
          "type": "uint256"
        },
        {
          "internalType": "bytes",
          "name": "data",
          "type": "bytes"
        }
      ],
      "name": "safeTransferFrom",
      "outputs": [],
      "stateMutability": "nonpayable",
      "type": "function"
    },
    {
      "inputs": [
        {
          "internalType": "address",
          "name": "operator",
          "type": "address"
        },
        {
          "internalType": "bool",
          "name": "approved",
          "type": "bool"
        }
      ],
      "name": "setApprovalForAll",
      "outputs": [],
      "stateMutability": "nonpayable",
      "type": "function"
    },
    {
      "inputs": [
        {
          "internalType": "bytes4",
          "name": "interfaceId",
          "type": "bytes4"
        }
      ],
      "name": "supportsInterface",
      "outputs": [
        {
          "internalType": "bool",
          "name": "",
          "type": "bool"
        }
      ],
      "stateMutability": "view",
      "type": "function"
    },
    {
      "inputs": [],
      "name": "symbol",
      "outputs": [
        {
          "internalType": "string",
          "name": "",
          "type": "string"
        }
      ],
      "stateMutability": "view",
      "type": "function"
    },
    {
      "inputs": [
        {
          "internalType": "uint256",
          "name": "tokenId",
          "type": "uint256"
        }
      ],
      "name": "tokenURI",
      "outputs": [
        {
          "internalType": "string",
          "name": "",
          "type": "string"
        }
      ],
      "stateMutability": "view",
      "type": "function"
    },
    {
      "inputs": [
        {
          "internalType": "address",
          "name": "from",
          "type": "address"
        },
        {
          "internalType": "address",
          "name": "to",
          "type": "address"
        },
        {
          "internalType": "uint256",
          "name": "tokenId",
          "type": "uint256"
        }
      ],
      "name": "transferFrom",
      "outputs": [],
      "stateMutability": "nonpayable",
      "type": "function"
    },
    {
      "inputs": [
        {
          "internalType": "address",
          "name": "newOwner",
          "type": "address"
        }
      ],
      "name": "transferOwnership",
      "outputs": [],
      "stateMutability": "nonpayable",
      "type": "function"
    },
    {
      "inputs": [],
      "name": "withdraw",
      "outputs": [],
      "stateMutability": "nonpayable",
      "type": "function"
    }
  ],
  "transactionHash": "0x40cf61b483d18bd8970980355545b135c667a2dce86db8071363cb282a2e250c",
  "args": [
    "0x8103B0A8A00be2DDC778e6e7eaa21791Cd364625",
    "2400",
    "0x474e34a077df58807dbe9c96d3c009b23b3c6d0cce433e59bbf5b34f823bc56c",
    "500000",
    [
      "ipfs://QmdG1pW9pQNZQo9HxupQkQAo6E9FphJLxx45TQDsHAaZPn",
      "ipfs://QmTKDLnaJAKQCvR5F64Grav2WPkbkvvVvV5mwu7SgdEz96",
      "ipfs://Qmdu9QT6KX6z3LTFfW9KR1HFGJAw91F9CAmaam4irLM9Lh",
      "ipfs://Qmangrbqwsy3aGHfgwqDcy1LiYzrC1jfqh93XAfbSokD4B"
    ],
    "10000000000000000"
  ],
  "numDeployments": 1,
  "solcInputHash": "a0430c45d58f2db85a904f611b8aff14",
  "bytecode": "0x6101206040526003600b60006101000a81548161ffff021916908361ffff1602179055506001600b60026101000a81548163ffffffff021916908363ffffffff1602179055503480156200005257600080fd5b506040516200433e3803806200433e833981810160405281019062000078919062000851565b6040518060400160405280601181526020017f52616e646f6d2048696f7320546f6b656e0000000000000000000000000000008152506040518060400160405280600581526020017f5248494f53000000000000000000000000000000000000000000000000000000815250878073ffffffffffffffffffffffffffffffffffffffff1660808173ffffffffffffffffffffffffffffffffffffffff1660601b8152505050816000908051906020019062000135929190620002e4565b5080600190805190602001906200014e929190620002e4565b50505062000171620001656200021660201b60201c565b6200021e60201b60201c565b8573ffffffffffffffffffffffffffffffffffffffff1660a08173ffffffffffffffffffffffffffffffffffffffff1660601b815250508467ffffffffffffffff1660c08167ffffffffffffffff1660c01b815250508360e081815250508263ffffffff166101008163ffffffff1660e01b8152505060006008819055508160099060046200020292919062000375565b5080600a8190555050505050505062000971565b600033905090565b6000600760009054906101000a900473ffffffffffffffffffffffffffffffffffffffff16905081600760006101000a81548173ffffffffffffffffffffffffffffffffffffffff021916908373ffffffffffffffffffffffffffffffffffffffff1602179055508173ffffffffffffffffffffffffffffffffffffffff168173ffffffffffffffffffffffffffffffffffffffff167f8be0079c531659141344cd1fd0a4f28419497f9722a3daafe3b4186f6b6457e060405160405180910390a35050565b828054620002f2906200093b565b90600052602060002090601f01602090048101928262000316576000855562000362565b82601f106200033157805160ff191683800117855562000362565b8280016001018555821562000362579182015b828111156200036157825182559160200191906001019062000344565b5b509050620003719190620003dc565b5090565b828054828255906000526020600020908101928215620003c9579160200282015b82811115620003c8578251829080519060200190620003b7929190620002e4565b509160200191906001019062000396565b5b509050620003d89190620003fb565b5090565b5b80821115620003f7576000816000905550600101620003dd565b5090565b5b808211156200041f576000818162000415919062000423565b50600101620003fc565b5090565b50805462000431906200093b565b6000825580601f1062000445575062000466565b601f016020900490600052602060002090810190620004659190620003dc565b5b50565b6000604051905090565b600080fd5b600080fd5b600073ffffffffffffffffffffffffffffffffffffffff82169050919050565b6000620004aa826200047d565b9050919050565b620004bc816200049d565b8114620004c857600080fd5b50565b600081519050620004dc81620004b1565b92915050565b600067ffffffffffffffff82169050919050565b6200050181620004e2565b81146200050d57600080fd5b50565b6000815190506200052181620004f6565b92915050565b6000819050919050565b6200053c8162000527565b81146200054857600080fd5b50565b6000815190506200055c8162000531565b92915050565b600063ffffffff82169050919050565b6200057d8162000562565b81146200058957600080fd5b50565b6000815190506200059d8162000572565b92915050565b600080fd5b6000601f19601f8301169050919050565b7f4e487b7100000000000000000000000000000000000000000000000000000000600052604160045260246000fd5b620005f382620005a8565b810181811067ffffffffffffffff82111715620006155762000614620005b9565b5b80604052505050565b60006200062a62000469565b9050620006388282620005e8565b919050565b600067ffffffffffffffff8211156200065b576200065a620005b9565b5b602082029050919050565b600080fd5b600080fd5b600067ffffffffffffffff8211156200068e576200068d620005b9565b5b6200069982620005a8565b9050602081019050919050565b60005b83811015620006c6578082015181840152602081019050620006a9565b83811115620006d6576000848401525b50505050565b6000620006f3620006ed8462000670565b6200061e565b9050828152602081018484840111156200071257620007116200066b565b5b6200071f848285620006a6565b509392505050565b600082601f8301126200073f576200073e620005a3565b5b815162000751848260208601620006dc565b91505092915050565b6000620007716200076b846200063d565b6200061e565b905080602084028301858111156200078e576200078d62000666565b5b835b81811015620007dc57805167ffffffffffffffff811115620007b757620007b6620005a3565b5b808601620007c6898262000727565b8552602085019450505060208101905062000790565b5050509392505050565b600082601f830112620007fe57620007fd620005a3565b5b60046200080d8482856200075a565b91505092915050565b6000819050919050565b6200082b8162000816565b81146200083757600080fd5b50565b6000815190506200084b8162000820565b92915050565b60008060008060008060c0878903121562000871576200087062000473565b5b60006200088189828a01620004cb565b96505060206200089489828a0162000510565b9550506040620008a789828a016200054b565b9450506060620008ba89828a016200058c565b935050608087015167ffffffffffffffff811115620008de57620008dd62000478565b5b620008ec89828a01620007e6565b92505060a0620008ff89828a016200083a565b9150509295509295509295565b7f4e487b7100000000000000000000000000000000000000000000000000000000600052602260045260246000fd5b600060028204905060018216806200095457607f821691505b602082108114156200096b576200096a6200090c565b5b50919050565b60805160601c60a05160601c60c05160c01c60e0516101005160e01c613975620009c96000396000610b7a01526000610b2701526000610b4801526000610aeb01526000818161080a015261085e01526139756000f3fe60806040526004361061014b5760003560e01c80636e02007d116100b6578063a5cd761f1161006f578063a5cd761f14610483578063b59d88a9146104c0578063b88d4fde146104eb578063c87b56dd14610514578063e985e9c514610551578063f2fde38b1461058e5761014b565b80636e02007d1461038557806370a08231146103b0578063715018a6146103ed5780638da5cb5b1461040457806395d89b411461042f578063a22cb4651461045a5761014b565b80633bb3a24d116101085780633bb3a24d146102705780633ccfd60b146102ad57806342842e0e146102c457806349fbb162146102ed5780636352211e1461030b57806365d6b257146103485761014b565b806301ffc9a71461015057806306fdde031461018d578063081812fc146101b8578063095ea7b3146101f55780631fe543e31461021e57806323b872dd14610247575b600080fd5b34801561015c57600080fd5b5061017760048036038101906101729190612617565b6105b7565b604051610184919061265f565b60405180910390f35b34801561019957600080fd5b506101a2610618565b6040516101af9190612713565b60405180910390f35b3480156101c457600080fd5b506101df60048036038101906101da919061276b565b6106aa565b6040516101ec91906127d9565b60405180910390f35b34801561020157600080fd5b5061021c60048036038101906102179190612820565b6106f0565b005b34801561022a57600080fd5b50610245600480360381019061024091906129a8565b610808565b005b34801561025357600080fd5b5061026e60048036038101906102699190612a04565b6108c8565b005b34801561027c57600080fd5b506102976004803603810190610292919061276b565b610928565b6040516102a49190612713565b60405180910390f35b3480156102b957600080fd5b506102c26109d8565b005b3480156102d057600080fd5b506102eb60048036038101906102e69190612a04565b610a8c565b005b6102f5610aac565b6040516103029190612a66565b60405180910390f35b34801561031757600080fd5b50610332600480360381019061032d919061276b565b610cb5565b60405161033f91906127d9565b60405180910390f35b34801561035457600080fd5b5061036f600480360381019061036a919061276b565b610d3c565b60405161037c9190612af8565b60405180910390f35b34801561039157600080fd5b5061039a610e08565b6040516103a79190612a66565b60405180910390f35b3480156103bc57600080fd5b506103d760048036038101906103d29190612b13565b610e12565b6040516103e49190612a66565b60405180910390f35b3480156103f957600080fd5b50610402610eca565b005b34801561041057600080fd5b50610419610ede565b60405161042691906127d9565b60405180910390f35b34801561043b57600080fd5b50610444610f08565b6040516104519190612713565b60405180910390f35b34801561046657600080fd5b50610481600480360381019061047c9190612b6c565b610f9a565b005b34801561048f57600080fd5b506104aa60048036038101906104a5919061276b565b610fb0565b6040516104b791906127d9565b60405180910390f35b3480156104cc57600080fd5b506104d5610fc2565b6040516104e29190612a66565b60405180910390f35b3480156104f757600080fd5b50610512600480360381019061050d9190612c61565b610fcc565b005b34801561052057600080fd5b5061053b6004803603810190610536919061276b565b61102e565b6040516105489190612713565b60405180910390f35b34801561055d57600080fd5b5061057860048036038101906105739190612ce4565b611141565b604051610585919061265f565b60405180910390f35b34801561059a57600080fd5b506105b560048036038101906105b09190612b13565b6111d5565b005b6000634906490660e01b7bffffffffffffffffffffffffffffffffffffffffffffffffffffffff1916827bffffffffffffffffffffffffffffffffffffffffffffffffffffffff19161480610611575061061082611259565b5b9050919050565b60606000805461062790612d53565b80601f016020809104026020016040519081016040528092919081815260200182805461065390612d53565b80156106a05780601f10610675576101008083540402835291602001916106a0565b820191906000526020600020905b81548152906001019060200180831161068357829003601f168201915b5050505050905090565b60006106b58261133b565b6004600083815260200190815260200160002060009054906101000a900473ffffffffffffffffffffffffffffffffffffffff169050919050565b60006106fb82610cb5565b90508073ffffffffffffffffffffffffffffffffffffffff168373ffffffffffffffffffffffffffffffffffffffff16141561076c576040517f08c379a000000000000000000000000000000000000000000000000000000000815260040161076390612df7565b60405180910390fd5b8073ffffffffffffffffffffffffffffffffffffffff1661078b611386565b73ffffffffffffffffffffffffffffffffffffffff1614806107ba57506107b9816107b4611386565b611141565b5b6107f9576040517f08c379a00000000000000000000000000000000000000000000000000000000081526004016107f090612e89565b60405180910390fd5b610803838361138e565b505050565b7f000000000000000000000000000000000000000000000000000000000000000073ffffffffffffffffffffffffffffffffffffffff163373ffffffffffffffffffffffffffffffffffffffff16146108ba57337f00000000000000000000000000000000000000000000000000000000000000006040517f1cf993f40000000000000000000000000000000000000000000000000000000081526004016108b1929190612ea9565b60405180910390fd5b6108c48282611447565b5050565b6108d96108d3611386565b826115f4565b610918576040517f08c379a000000000000000000000000000000000000000000000000000000000815260040161090f90612f44565b60405180910390fd5b610923838383611689565b505050565b60606009828154811061093e5761093d612f64565b5b90600052602060002001805461095390612d53565b80601f016020809104026020016040519081016040528092919081815260200182805461097f90612d53565b80156109cc5780601f106109a1576101008083540402835291602001916109cc565b820191906000526020600020905b8154815290600101906020018083116109af57829003601f168201915b50505050509050919050565b6109e0611983565b600047905060003073ffffffffffffffffffffffffffffffffffffffff1682604051610a0b90612fc4565b60006040518083038185875af1925050503d8060008114610a48576040519150601f19603f3d011682016040523d82523d6000602084013e610a4d565b606091505b5050905080610a88576040517f6f6b3f3400000000000000000000000000000000000000000000000000000000815260040160405180910390fd5b5050565b610aa783838360405180602001604052806000815250610fcc565b505050565b6000600a543414610ae9576040517f8fd83df900000000000000000000000000000000000000000000000000000000815260040160405180910390fd5b7f000000000000000000000000000000000000000000000000000000000000000073ffffffffffffffffffffffffffffffffffffffff16635d3b1d307f00000000000000000000000000000000000000000000000000000000000000007f0000000000000000000000000000000000000000000000000000000000000000600b60009054906101000a900461ffff167f0000000000000000000000000000000000000000000000000000000000000000600b60029054906101000a900463ffffffff166040518663ffffffff1660e01b8152600401610bcc959493929190613051565b602060405180830381600087803b158015610be657600080fd5b505af1158015610bfa573d6000803e3d6000fd5b505050506040513d601f19601f82011682018060405250810190610c1e91906130b9565b905033600c600083815260200190815260200160002060006101000a81548173ffffffffffffffffffffffffffffffffffffffff021916908373ffffffffffffffffffffffffffffffffffffffff1602179055507ff873236e6cc0ecc5be1a9a35c95ee5b8d1ac4cc7bfef0cc5060391d6cc98e26b81610c9c611386565b604051610caa9291906130e6565b60405180910390a190565b600080610cc183611a01565b9050600073ffffffffffffffffffffffffffffffffffffffff168173ffffffffffffffffffffffffffffffffffffffff161415610d33576040517f08c379a0000000000000000000000000000000000000000000000000000000008152600401610d2a9061315b565b60405180910390fd5b80915050919050565b600080600090506000610d4d611a3e565b905060005b6004811015610dd0578285118015610d815750818160048110610d7857610d77612f64565b5b60200201518511155b15610da357806003811115610d9957610d98612a81565b5b9350505050610e03565b818160048110610db657610db5612f64565b5b602002015192508080610dc8906131aa565b915050610d52565b506040517fbb5808e200000000000000000000000000000000000000000000000000000000815260040160405180910390fd5b919050565b6000600854905090565b60008073ffffffffffffffffffffffffffffffffffffffff168273ffffffffffffffffffffffffffffffffffffffff161415610e83576040517f08c379a0000000000000000000000000000000000000000000000000000000008152600401610e7a90613265565b60405180910390fd5b600360008373ffffffffffffffffffffffffffffffffffffffff1673ffffffffffffffffffffffffffffffffffffffff168152602001908152602001600020549050919050565b610ed2611983565b610edc6000611a73565b565b6000600760009054906101000a900473ffffffffffffffffffffffffffffffffffffffff16905090565b606060018054610f1790612d53565b80601f0160208091040260200160405190810160405280929190818152602001828054610f4390612d53565b8015610f905780601f10610f6557610100808354040283529160200191610f90565b820191906000526020600020905b815481529060010190602001808311610f7357829003601f168201915b5050505050905090565b610fac610fa5611386565b8383611b39565b5050565b6000610fbb82610cb5565b9050919050565b6000600a54905090565b610fdd610fd7611386565b836115f4565b61101c576040517f08c379a000000000000000000000000000000000000000000000000000000000815260040161101390612f44565b60405180910390fd5b61102884848484611ca6565b50505050565b60606110398261133b565b600060066000848152602001908152602001600020805461105990612d53565b80601f016020809104026020016040519081016040528092919081815260200182805461108590612d53565b80156110d25780601f106110a7576101008083540402835291602001916110d2565b820191906000526020600020905b8154815290600101906020018083116110b557829003601f168201915b5050505050905060006110e3611d02565b90506000815114156110f957819250505061113c565b60008251111561112e5780826040516020016111169291906132c1565b6040516020818303038152906040529250505061113c565b61113784611d19565b925050505b919050565b6000600560008473ffffffffffffffffffffffffffffffffffffffff1673ffffffffffffffffffffffffffffffffffffffff16815260200190815260200160002060008373ffffffffffffffffffffffffffffffffffffffff1673ffffffffffffffffffffffffffffffffffffffff16815260200190815260200160002060009054906101000a900460ff16905092915050565b6111dd611983565b600073ffffffffffffffffffffffffffffffffffffffff168173ffffffffffffffffffffffffffffffffffffffff16141561124d576040517f08c379a000000000000000000000000000000000000000000000000000000000815260040161124490613357565b60405180910390fd5b61125681611a73565b50565b60007f80ac58cd000000000000000000000000000000000000000000000000000000007bffffffffffffffffffffffffffffffffffffffffffffffffffffffff1916827bffffffffffffffffffffffffffffffffffffffffffffffffffffffff1916148061132457507f5b5e139f000000000000000000000000000000000000000000000000000000007bffffffffffffffffffffffffffffffffffffffffffffffffffffffff1916827bffffffffffffffffffffffffffffffffffffffffffffffffffffffff1916145b80611334575061133382611d81565b5b9050919050565b61134481611deb565b611383576040517f08c379a000000000000000000000000000000000000000000000000000000000815260040161137a9061315b565b60405180910390fd5b50565b600033905090565b816004600083815260200190815260200160002060006101000a81548173ffffffffffffffffffffffffffffffffffffffff021916908373ffffffffffffffffffffffffffffffffffffffff160217905550808273ffffffffffffffffffffffffffffffffffffffff1661140183610cb5565b73ffffffffffffffffffffffffffffffffffffffff167f8c5be1e5ebec7d5bd14f71427d1e84f3dd0314c0f7b2291e5b200ac8c7c3b92560405160405180910390a45050565b6000600c600084815260200190815260200160002060009054906101000a900473ffffffffffffffffffffffffffffffffffffffff169050600060085490506000606460ff16846000815181106114a1576114a0612f64565b5b60200260200101516114b391906133a6565b905060006114c082610d3c565b90506114cc8484611e2c565b61158e8360098360038111156114e5576114e4612a81565b5b815481106114f6576114f5612f64565b5b90600052602060002001805461150b90612d53565b80601f016020809104026020016040519081016040528092919081815260200182805461153790612d53565b80156115845780601f1061155957610100808354040283529160200191611584565b820191906000526020600020905b81548152906001019060200180831161156757829003601f168201915b505050505061204a565b7f4aee1b0fb444ad862f4408e33281a11d7ab0fe5461ce14d159c683a741149354816008546115bb611386565b6040516115ca939291906133d7565b60405180910390a16001600860008282546115e5919061340e565b92505081905550505050505050565b60008061160083610cb5565b90508073ffffffffffffffffffffffffffffffffffffffff168473ffffffffffffffffffffffffffffffffffffffff16148061164257506116418185611141565b5b8061168057508373ffffffffffffffffffffffffffffffffffffffff16611668846106aa565b73ffffffffffffffffffffffffffffffffffffffff16145b91505092915050565b8273ffffffffffffffffffffffffffffffffffffffff166116a982610cb5565b73ffffffffffffffffffffffffffffffffffffffff16146116ff576040517f08c379a00000000000000000000000000000000000000000000000000000000081526004016116f6906134d6565b60405180910390fd5b600073ffffffffffffffffffffffffffffffffffffffff168273ffffffffffffffffffffffffffffffffffffffff16141561176f576040517f08c379a000000000000000000000000000000000000000000000000000000000815260040161176690613568565b60405180910390fd5b61177c83838360016120f5565b8273ffffffffffffffffffffffffffffffffffffffff1661179c82610cb5565b73ffffffffffffffffffffffffffffffffffffffff16146117f2576040517f08c379a00000000000000000000000000000000000000000000000000000000081526004016117e9906134d6565b60405180910390fd5b6004600082815260200190815260200160002060006101000a81549073ffffffffffffffffffffffffffffffffffffffff02191690556001600360008573ffffffffffffffffffffffffffffffffffffffff1673ffffffffffffffffffffffffffffffffffffffff168152602001908152602001600020600082825403925050819055506001600360008473ffffffffffffffffffffffffffffffffffffffff1673ffffffffffffffffffffffffffffffffffffffff16815260200190815260200160002060008282540192505081905550816002600083815260200190815260200160002060006101000a81548173ffffffffffffffffffffffffffffffffffffffff021916908373ffffffffffffffffffffffffffffffffffffffff160217905550808273ffffffffffffffffffffffffffffffffffffffff168473ffffffffffffffffffffffffffffffffffffffff167fddf252ad1be2c89b69c2b068fc378daa952ba7f163c4a11628f55a4df523b3ef60405160405180910390a461197e83838360016120fb565b505050565b61198b611386565b73ffffffffffffffffffffffffffffffffffffffff166119a9610ede565b73ffffffffffffffffffffffffffffffffffffffff16146119ff576040517f08c379a00000000000000000000000000000000000000000000000000000000081526004016119f6906135d4565b60405180910390fd5b565b60006002600083815260200190815260200160002060009054906101000a900473ffffffffffffffffffffffffffffffffffffffff169050919050565b611a466124e6565b6040518060800160405280603c815260200160508152602001605f8152602001606460ff16815250905090565b6000600760009054906101000a900473ffffffffffffffffffffffffffffffffffffffff16905081600760006101000a81548173ffffffffffffffffffffffffffffffffffffffff021916908373ffffffffffffffffffffffffffffffffffffffff1602179055508173ffffffffffffffffffffffffffffffffffffffff168173ffffffffffffffffffffffffffffffffffffffff167f8be0079c531659141344cd1fd0a4f28419497f9722a3daafe3b4186f6b6457e060405160405180910390a35050565b8173ffffffffffffffffffffffffffffffffffffffff168373ffffffffffffffffffffffffffffffffffffffff161415611ba8576040517f08c379a0000000000000000000000000000000000000000000000000000000008152600401611b9f90613640565b60405180910390fd5b80600560008573ffffffffffffffffffffffffffffffffffffffff1673ffffffffffffffffffffffffffffffffffffffff16815260200190815260200160002060008473ffffffffffffffffffffffffffffffffffffffff1673ffffffffffffffffffffffffffffffffffffffff16815260200190815260200160002060006101000a81548160ff0219169083151502179055508173ffffffffffffffffffffffffffffffffffffffff168373ffffffffffffffffffffffffffffffffffffffff167f17307eab39ab6107e8899845ad3d59bd9653f200f220920489ca2b5937696c3183604051611c99919061265f565b60405180910390a3505050565b611cb1848484611689565b611cbd84848484612101565b611cfc576040517f08c379a0000000000000000000000000000000000000000000000000000000008152600401611cf3906136d2565b60405180910390fd5b50505050565b606060405180602001604052806000815250905090565b6060611d248261133b565b6000611d2e611d02565b90506000815111611d4e5760405180602001604052806000815250611d79565b80611d5884612298565b604051602001611d699291906132c1565b6040516020818303038152906040525b915050919050565b60007f01ffc9a7000000000000000000000000000000000000000000000000000000007bffffffffffffffffffffffffffffffffffffffffffffffffffffffff1916827bffffffffffffffffffffffffffffffffffffffffffffffffffffffff1916149050919050565b60008073ffffffffffffffffffffffffffffffffffffffff16611e0d83611a01565b73ffffffffffffffffffffffffffffffffffffffff1614159050919050565b600073ffffffffffffffffffffffffffffffffffffffff168273ffffffffffffffffffffffffffffffffffffffff161415611e9c576040517f08c379a0000000000000000000000000000000000000000000000000000000008152600401611e939061373e565b60405180910390fd5b611ea581611deb565b15611ee5576040517f08c379a0000000000000000000000000000000000000000000000000000000008152600401611edc906137aa565b60405180910390fd5b611ef36000838360016120f5565b611efc81611deb565b15611f3c576040517f08c379a0000000000000000000000000000000000000000000000000000000008152600401611f33906137aa565b60405180910390fd5b6001600360008473ffffffffffffffffffffffffffffffffffffffff1673ffffffffffffffffffffffffffffffffffffffff16815260200190815260200160002060008282540192505081905550816002600083815260200190815260200160002060006101000a81548173ffffffffffffffffffffffffffffffffffffffff021916908373ffffffffffffffffffffffffffffffffffffffff160217905550808273ffffffffffffffffffffffffffffffffffffffff16600073ffffffffffffffffffffffffffffffffffffffff167fddf252ad1be2c89b69c2b068fc378daa952ba7f163c4a11628f55a4df523b3ef60405160405180910390a46120466000838360016120fb565b5050565b61205382611deb565b612092576040517f08c379a00000000000000000000000000000000000000000000000000000000081526004016120899061383c565b60405180910390fd5b806006600084815260200190815260200160002090805190602001906120b9929190612508565b507ff8e1a15aba9398e019f0b49df1a4fde98ee17ae345cb5f6b5e2c27f5033e8ce7826040516120e99190612a66565b60405180910390a15050565b50505050565b50505050565b60006121228473ffffffffffffffffffffffffffffffffffffffff16612370565b1561228b578373ffffffffffffffffffffffffffffffffffffffff1663150b7a0261214b611386565b8786866040518563ffffffff1660e01b815260040161216d94939291906138b1565b602060405180830381600087803b15801561218757600080fd5b505af19250505080156121b857506040513d601f19601f820116820180604052508101906121b59190613912565b60015b61223b573d80600081146121e8576040519150601f19603f3d011682016040523d82523d6000602084013e6121ed565b606091505b50600081511415612233576040517f08c379a000000000000000000000000000000000000000000000000000000000815260040161222a906136d2565b60405180910390fd5b805181602001fd5b63150b7a0260e01b7bffffffffffffffffffffffffffffffffffffffffffffffffffffffff1916817bffffffffffffffffffffffffffffffffffffffffffffffffffffffff191614915050612290565b600190505b949350505050565b6060600060016122a784612393565b01905060008167ffffffffffffffff8111156122c6576122c5612865565b5b6040519080825280601f01601f1916602001820160405280156122f85781602001600182028036833780820191505090505b509050600082602001820190505b600115612365578080600190039150507f3031323334353637383961626364656600000000000000000000000000000000600a86061a8153600a858161234f5761234e613377565b5b049450600085141561236057612365565b612306565b819350505050919050565b6000808273ffffffffffffffffffffffffffffffffffffffff163b119050919050565b600080600090507a184f03e93ff9f4daa797ed6e38ed64bf6a1f01000000000000000083106123f1577a184f03e93ff9f4daa797ed6e38ed64bf6a1f01000000000000000083816123e7576123e6613377565b5b0492506040810190505b6d04ee2d6d415b85acef8100000000831061242e576d04ee2d6d415b85acef8100000000838161242457612423613377565b5b0492506020810190505b662386f26fc10000831061245d57662386f26fc10000838161245357612452613377565b5b0492506010810190505b6305f5e1008310612486576305f5e100838161247c5761247b613377565b5b0492506008810190505b61271083106124ab5761271083816124a1576124a0613377565b5b0492506004810190505b606483106124ce57606483816124c4576124c3613377565b5b0492506002810190505b600a83106124dd576001810190505b80915050919050565b6040518060800160405280600490602082028036833780820191505090505090565b82805461251490612d53565b90600052602060002090601f016020900481019282612536576000855561257d565b82601f1061254f57805160ff191683800117855561257d565b8280016001018555821561257d579182015b8281111561257c578251825591602001919060010190612561565b5b50905061258a919061258e565b5090565b5b808211156125a757600081600090555060010161258f565b5090565b6000604051905090565b600080fd5b600080fd5b60007fffffffff0000000000000000000000000000000000000000000000000000000082169050919050565b6125f4816125bf565b81146125ff57600080fd5b50565b600081359050612611816125eb565b92915050565b60006020828403121561262d5761262c6125b5565b5b600061263b84828501612602565b91505092915050565b60008115159050919050565b61265981612644565b82525050565b60006020820190506126746000830184612650565b92915050565b600081519050919050565b600082825260208201905092915050565b60005b838110156126b4578082015181840152602081019050612699565b838111156126c3576000848401525b50505050565b6000601f19601f8301169050919050565b60006126e58261267a565b6126ef8185612685565b93506126ff818560208601612696565b612708816126c9565b840191505092915050565b6000602082019050818103600083015261272d81846126da565b905092915050565b6000819050919050565b61274881612735565b811461275357600080fd5b50565b6000813590506127658161273f565b92915050565b600060208284031215612781576127806125b5565b5b600061278f84828501612756565b91505092915050565b600073ffffffffffffffffffffffffffffffffffffffff82169050919050565b60006127c382612798565b9050919050565b6127d3816127b8565b82525050565b60006020820190506127ee60008301846127ca565b92915050565b6127fd816127b8565b811461280857600080fd5b50565b60008135905061281a816127f4565b92915050565b60008060408385031215612837576128366125b5565b5b60006128458582860161280b565b925050602061285685828601612756565b9150509250929050565b600080fd5b7f4e487b7100000000000000000000000000000000000000000000000000000000600052604160045260246000fd5b61289d826126c9565b810181811067ffffffffffffffff821117156128bc576128bb612865565b5b80604052505050565b60006128cf6125ab565b90506128db8282612894565b919050565b600067ffffffffffffffff8211156128fb576128fa612865565b5b602082029050602081019050919050565b600080fd5b600061292461291f846128e0565b6128c5565b905080838252602082019050602084028301858111156129475761294661290c565b5b835b81811015612970578061295c8882612756565b845260208401935050602081019050612949565b5050509392505050565b600082601f83011261298f5761298e612860565b5b813561299f848260208601612911565b91505092915050565b600080604083850312156129bf576129be6125b5565b5b60006129cd85828601612756565b925050602083013567ffffffffffffffff8111156129ee576129ed6125ba565b5b6129fa8582860161297a565b9150509250929050565b600080600060608486031215612a1d57612a1c6125b5565b5b6000612a2b8682870161280b565b9350506020612a3c8682870161280b565b9250506040612a4d86828701612756565b9150509250925092565b612a6081612735565b82525050565b6000602082019050612a7b6000830184612a57565b92915050565b7f4e487b7100000000000000000000000000000000000000000000000000000000600052602160045260246000fd5b60048110612ac157612ac0612a81565b5b50565b6000819050612ad282612ab0565b919050565b6000612ae282612ac4565b9050919050565b612af281612ad7565b82525050565b6000602082019050612b0d6000830184612ae9565b92915050565b600060208284031215612b2957612b286125b5565b5b6000612b378482850161280b565b91505092915050565b612b4981612644565b8114612b5457600080fd5b50565b600081359050612b6681612b40565b92915050565b60008060408385031215612b8357612b826125b5565b5b6000612b918582860161280b565b9250506020612ba285828601612b57565b9150509250929050565b600080fd5b600067ffffffffffffffff821115612bcc57612bcb612865565b5b612bd5826126c9565b9050602081019050919050565b82818337600083830152505050565b6000612c04612bff84612bb1565b6128c5565b905082815260208101848484011115612c2057612c1f612bac565b5b612c2b848285612be2565b509392505050565b600082601f830112612c4857612c47612860565b5b8135612c58848260208601612bf1565b91505092915050565b60008060008060808587031215612c7b57612c7a6125b5565b5b6000612c898782880161280b565b9450506020612c9a8782880161280b565b9350506040612cab87828801612756565b925050606085013567ffffffffffffffff811115612ccc57612ccb6125ba565b5b612cd887828801612c33565b91505092959194509250565b60008060408385031215612cfb57612cfa6125b5565b5b6000612d098582860161280b565b9250506020612d1a8582860161280b565b9150509250929050565b7f4e487b7100000000000000000000000000000000000000000000000000000000600052602260045260246000fd5b60006002820490506001821680612d6b57607f821691505b60208210811415612d7f57612d7e612d24565b5b50919050565b7f4552433732313a20617070726f76616c20746f2063757272656e74206f776e6560008201527f7200000000000000000000000000000000000000000000000000000000000000602082015250565b6000612de1602183612685565b9150612dec82612d85565b604082019050919050565b60006020820190508181036000830152612e1081612dd4565b9050919050565b7f4552433732313a20617070726f76652063616c6c6572206973206e6f7420746f60008201527f6b656e206f776e6572206f7220617070726f76656420666f7220616c6c000000602082015250565b6000612e73603d83612685565b9150612e7e82612e17565b604082019050919050565b60006020820190508181036000830152612ea281612e66565b9050919050565b6000604082019050612ebe60008301856127ca565b612ecb60208301846127ca565b9392505050565b7f4552433732313a2063616c6c6572206973206e6f7420746f6b656e206f776e6560008201527f72206f7220617070726f76656400000000000000000000000000000000000000602082015250565b6000612f2e602d83612685565b9150612f3982612ed2565b604082019050919050565b60006020820190508181036000830152612f5d81612f21565b9050919050565b7f4e487b7100000000000000000000000000000000000000000000000000000000600052603260045260246000fd5b600081905092915050565b50565b6000612fae600083612f93565b9150612fb982612f9e565b600082019050919050565b6000612fcf82612fa1565b9150819050919050565b6000819050919050565b612fec81612fd9565b82525050565b600067ffffffffffffffff82169050919050565b61300f81612ff2565b82525050565b600061ffff82169050919050565b61302c81613015565b82525050565b600063ffffffff82169050919050565b61304b81613032565b82525050565b600060a0820190506130666000830188612fe3565b6130736020830187613006565b6130806040830186613023565b61308d6060830185613042565b61309a6080830184613042565b9695505050505050565b6000815190506130b38161273f565b92915050565b6000602082840312156130cf576130ce6125b5565b5b60006130dd848285016130a4565b91505092915050565b60006040820190506130fb6000830185612a57565b61310860208301846127ca565b9392505050565b7f4552433732313a20696e76616c696420746f6b656e2049440000000000000000600082015250565b6000613145601883612685565b91506131508261310f565b602082019050919050565b6000602082019050818103600083015261317481613138565b9050919050565b7f4e487b7100000000000000000000000000000000000000000000000000000000600052601160045260246000fd5b60006131b582612735565b91507fffffffffffffffffffffffffffffffffffffffffffffffffffffffffffffffff8214156131e8576131e761317b565b5b600182019050919050565b7f4552433732313a2061646472657373207a65726f206973206e6f74206120766160008201527f6c6964206f776e65720000000000000000000000000000000000000000000000602082015250565b600061324f602983612685565b915061325a826131f3565b604082019050919050565b6000602082019050818103600083015261327e81613242565b9050919050565b600081905092915050565b600061329b8261267a565b6132a58185613285565b93506132b5818560208601612696565b80840191505092915050565b60006132cd8285613290565b91506132d98284613290565b91508190509392505050565b7f4f776e61626c653a206e6577206f776e657220697320746865207a65726f206160008201527f6464726573730000000000000000000000000000000000000000000000000000602082015250565b6000613341602683612685565b915061334c826132e5565b604082019050919050565b6000602082019050818103600083015261337081613334565b9050919050565b7f4e487b7100000000000000000000000000000000000000000000000000000000600052601260045260246000fd5b60006133b182612735565b91506133bc83612735565b9250826133cc576133cb613377565b5b828206905092915050565b60006060820190506133ec6000830186612ae9565b6133f96020830185612a57565b61340660408301846127ca565b949350505050565b600061341982612735565b915061342483612735565b9250827fffffffffffffffffffffffffffffffffffffffffffffffffffffffffffffffff038211156134595761345861317b565b5b828201905092915050565b7f4552433732313a207472616e736665722066726f6d20696e636f72726563742060008201527f6f776e6572000000000000000000000000000000000000000000000000000000602082015250565b60006134c0602583612685565b91506134cb82613464565b604082019050919050565b600060208201905081810360008301526134ef816134b3565b9050919050565b7f4552433732313a207472616e7366657220746f20746865207a65726f2061646460008201527f7265737300000000000000000000000000000000000000000000000000000000602082015250565b6000613552602483612685565b915061355d826134f6565b604082019050919050565b6000602082019050818103600083015261358181613545565b9050919050565b7f4f776e61626c653a2063616c6c6572206973206e6f7420746865206f776e6572600082015250565b60006135be602083612685565b91506135c982613588565b602082019050919050565b600060208201905081810360008301526135ed816135b1565b9050919050565b7f4552433732313a20617070726f766520746f2063616c6c657200000000000000600082015250565b600061362a601983612685565b9150613635826135f4565b602082019050919050565b600060208201905081810360008301526136598161361d565b9050919050565b7f4552433732313a207472616e7366657220746f206e6f6e20455243373231526560008201527f63656976657220696d706c656d656e7465720000000000000000000000000000602082015250565b60006136bc603283612685565b91506136c782613660565b604082019050919050565b600060208201905081810360008301526136eb816136af565b9050919050565b7f4552433732313a206d696e7420746f20746865207a65726f2061646472657373600082015250565b6000613728602083612685565b9150613733826136f2565b602082019050919050565b600060208201905081810360008301526137578161371b565b9050919050565b7f4552433732313a20746f6b656e20616c7265616479206d696e74656400000000600082015250565b6000613794601c83612685565b915061379f8261375e565b602082019050919050565b600060208201905081810360008301526137c381613787565b9050919050565b7f45524337323155524953746f726167653a2055524920736574206f66206e6f6e60008201527f6578697374656e7420746f6b656e000000000000000000000000000000000000602082015250565b6000613826602e83612685565b9150613831826137ca565b604082019050919050565b6000602082019050818103600083015261385581613819565b9050919050565b600081519050919050565b600082825260208201905092915050565b60006138838261385c565b61388d8185613867565b935061389d818560208601612696565b6138a6816126c9565b840191505092915050565b60006080820190506138c660008301876127ca565b6138d360208301866127ca565b6138e06040830185612a57565b81810360608301526138f28184613878565b905095945050505050565b60008151905061390c816125eb565b92915050565b600060208284031215613928576139276125b5565b5b6000613936848285016138fd565b9150509291505056fea26469706673582212201412df4fd9359531969b65237c55d6599356935725d7041a64d457f5f4112e5064736f6c63430008080033",
  "devdoc": {
    "kind": "dev",
    "methods": {
      "approve(address,uint256)": {
        "details": "See {IERC721-approve}."
      },
      "balanceOf(address)": {
        "details": "See {IERC721-balanceOf}."
      },
      "getApproved(uint256)": {
        "details": "See {IERC721-getApproved}."
      },
      "isApprovedForAll(address,address)": {
        "details": "See {IERC721-isApprovedForAll}."
      },
      "name()": {
        "details": "See {IERC721Metadata-name}."
      },
      "owner()": {
        "details": "Returns the address of the current owner."
      },
      "ownerOf(uint256)": {
        "details": "See {IERC721-ownerOf}."
      },
      "renounceOwnership()": {
        "details": "Leaves the contract without owner. It will not be possible to call `onlyOwner` functions. Can only be called by the current owner. NOTE: Renouncing ownership will leave the contract without an owner, thereby disabling any functionality that is only available to the owner."
      },
      "safeTransferFrom(address,address,uint256)": {
        "details": "See {IERC721-safeTransferFrom}."
      },
      "safeTransferFrom(address,address,uint256,bytes)": {
        "details": "See {IERC721-safeTransferFrom}."
      },
      "setApprovalForAll(address,bool)": {
        "details": "See {IERC721-setApprovalForAll}."
      },
      "supportsInterface(bytes4)": {
        "details": "See {IERC165-supportsInterface}"
      },
      "symbol()": {
        "details": "See {IERC721Metadata-symbol}."
      },
      "tokenURI(uint256)": {
        "details": "See {IERC721Metadata-tokenURI}."
      },
      "transferFrom(address,address,uint256)": {
        "details": "See {IERC721-transferFrom}."
      },
      "transferOwnership(address)": {
        "details": "Transfers ownership of the contract to a new account (`newOwner`). Can only be called by the current owner."
      }
    },
    "version": 1
  },
  "userdoc": {
    "kind": "user",
    "methods": {},
    "version": 1
  },
  "storageLayout": {
    "storage": [
      {
        "astId": 320,
        "contract": "contracts/RandomNft.sol:RandomNft",
        "label": "_name",
        "offset": 0,
        "slot": "0",
        "type": "t_string_storage"
      },
      {
        "astId": 322,
        "contract": "contracts/RandomNft.sol:RandomNft",
        "label": "_symbol",
        "offset": 0,
        "slot": "1",
        "type": "t_string_storage"
      },
      {
        "astId": 326,
        "contract": "contracts/RandomNft.sol:RandomNft",
        "label": "_owners",
        "offset": 0,
        "slot": "2",
        "type": "t_mapping(t_uint256,t_address)"
      },
      {
        "astId": 330,
        "contract": "contracts/RandomNft.sol:RandomNft",
        "label": "_balances",
        "offset": 0,
        "slot": "3",
        "type": "t_mapping(t_address,t_uint256)"
      },
      {
        "astId": 334,
        "contract": "contracts/RandomNft.sol:RandomNft",
        "label": "_tokenApprovals",
        "offset": 0,
        "slot": "4",
        "type": "t_mapping(t_uint256,t_address)"
      },
      {
        "astId": 340,
        "contract": "contracts/RandomNft.sol:RandomNft",
        "label": "_operatorApprovals",
        "offset": 0,
        "slot": "5",
        "type": "t_mapping(t_address,t_mapping(t_address,t_bool))"
      },
      {
        "astId": 1371,
        "contract": "contracts/RandomNft.sol:RandomNft",
        "label": "_tokenURIs",
        "offset": 0,
        "slot": "6",
        "type": "t_mapping(t_uint256,t_string_storage)"
      },
      {
        "astId": 161,
        "contract": "contracts/RandomNft.sol:RandomNft",
        "label": "_owner",
        "offset": 0,
        "slot": "7",
        "type": "t_address"
      },
      {
        "astId": 3145,
        "contract": "contracts/RandomNft.sol:RandomNft",
        "label": "s_tokenCounter",
        "offset": 0,
        "slot": "8",
        "type": "t_uint256"
      },
      {
        "astId": 3148,
        "contract": "contracts/RandomNft.sol:RandomNft",
        "label": "i_heliosUris",
        "offset": 0,
        "slot": "9",
        "type": "t_array(t_string_storage)dyn_storage"
      },
      {
        "astId": 3150,
        "contract": "contracts/RandomNft.sol:RandomNft",
        "label": "i_mintFee",
        "offset": 0,
        "slot": "10",
        "type": "t_uint256"
      },
      {
        "astId": 3162,
        "contract": "contracts/RandomNft.sol:RandomNft",
        "label": "REQUEST_CONFIRMATIONS",
        "offset": 0,
        "slot": "11",
        "type": "t_uint16"
      },
      {
        "astId": 3165,
        "contract": "contracts/RandomNft.sol:RandomNft",
        "label": "NUM_WORDS",
        "offset": 2,
        "slot": "11",
        "type": "t_uint32"
      },
      {
        "astId": 3169,
        "contract": "contracts/RandomNft.sol:RandomNft",
        "label": "s_requestIdToOwner",
        "offset": 0,
        "slot": "12",
        "type": "t_mapping(t_uint256,t_address)"
      }
    ],
    "types": {
      "t_address": {
        "encoding": "inplace",
        "label": "address",
        "numberOfBytes": "20"
      },
      "t_array(t_string_storage)dyn_storage": {
        "base": "t_string_storage",
        "encoding": "dynamic_array",
        "label": "string[]",
        "numberOfBytes": "32"
      },
      "t_bool": {
        "encoding": "inplace",
        "label": "bool",
        "numberOfBytes": "1"
      },
      "t_mapping(t_address,t_bool)": {
        "encoding": "mapping",
        "key": "t_address",
        "label": "mapping(address => bool)",
        "numberOfBytes": "32",
        "value": "t_bool"
      },
      "t_mapping(t_address,t_mapping(t_address,t_bool))": {
        "encoding": "mapping",
        "key": "t_address",
        "label": "mapping(address => mapping(address => bool))",
        "numberOfBytes": "32",
        "value": "t_mapping(t_address,t_bool)"
      },
      "t_mapping(t_address,t_uint256)": {
        "encoding": "mapping",
        "key": "t_address",
        "label": "mapping(address => uint256)",
        "numberOfBytes": "32",
        "value": "t_uint256"
      },
      "t_mapping(t_uint256,t_address)": {
        "encoding": "mapping",
        "key": "t_uint256",
        "label": "mapping(uint256 => address)",
        "numberOfBytes": "32",
        "value": "t_address"
      },
      "t_mapping(t_uint256,t_string_storage)": {
        "encoding": "mapping",
        "key": "t_uint256",
        "label": "mapping(uint256 => string)",
        "numberOfBytes": "32",
        "value": "t_string_storage"
      },
      "t_string_storage": {
        "encoding": "bytes",
        "label": "string",
        "numberOfBytes": "32"
      },
      "t_uint16": {
        "encoding": "inplace",
        "label": "uint16",
        "numberOfBytes": "2"
      },
      "t_uint256": {
        "encoding": "inplace",
        "label": "uint256",
        "numberOfBytes": "32"
      },
      "t_uint32": {
        "encoding": "inplace",
        "label": "uint32",
        "numberOfBytes": "4"
      }
    }
  }
}