{
  "address": "0x7f9c6594a07Cc4575D771D3159B3f8EdFD31E854",
  "abi": [
    {
      "inputs": [
        {
          "internalType": "address",
          "name": "princeFeedAddress",
          "type": "address"
        },
        {
          "internalType": "string",
          "name": "sadToken",
          "type": "string"
        },
        {
          "internalType": "string",
          "name": "happyToken",
          "type": "string"
        }
      ],
      "stateMutability": "nonpayable",
      "type": "constructor"
    },
    {
      "anonymous": false,
      "inputs": [
        {
          "indexed": true,
          "internalType": "address",
          "name": "owner",
          "type": "address"
        },
        {
          "indexed": true,
          "internalType": "address",
          "name": "approved",
          "type": "address"
        },
        {
          "indexed": true,
          "internalType": "uint256",
          "name": "tokenId",
          "type": "uint256"
        }
      ],
      "name": "Approval",
      "type": "event"
    },
    {
      "anonymous": false,
      "inputs": [
        {
          "indexed": true,
          "internalType": "address",
          "name": "owner",
          "type": "address"
        },
        {
          "indexed": true,
          "internalType": "address",
          "name": "operator",
          "type": "address"
        },
        {
          "indexed": false,
          "internalType": "bool",
          "name": "approved",
          "type": "bool"
        }
      ],
      "name": "ApprovalForAll",
      "type": "event"
    },
    {
      "anonymous": false,
      "inputs": [
        {
          "indexed": false,
          "internalType": "uint256",
          "name": "tokenId",
          "type": "uint256"
        },
        {
          "indexed": false,
          "internalType": "int256",
          "name": "priceThreshold",
          "type": "int256"
        }
      ],
      "name": "NftMinted",
      "type": "event"
    },
    {
      "anonymous": false,
      "inputs": [
        {
          "indexed": true,
          "internalType": "address",
          "name": "from",
          "type": "address"
        },
        {
          "indexed": true,
          "internalType": "address",
          "name": "to",
          "type": "address"
        },
        {
          "indexed": true,
          "internalType": "uint256",
          "name": "tokenId",
          "type": "uint256"
        }
      ],
      "name": "Transfer",
      "type": "event"
    },
    {
      "inputs": [
        {
          "internalType": "address",
          "name": "to",
          "type": "address"
        },
        {
          "internalType": "uint256",
          "name": "tokenId",
          "type": "uint256"
        }
      ],
      "name": "approve",
      "outputs": [],
      "stateMutability": "nonpayable",
      "type": "function"
    },
    {
      "inputs": [
        {
          "internalType": "address",
          "name": "owner",
          "type": "address"
        }
      ],
      "name": "balanceOf",
      "outputs": [
        {
          "internalType": "uint256",
          "name": "",
          "type": "uint256"
        }
      ],
      "stateMutability": "view",
      "type": "function"
    },
    {
      "inputs": [
        {
          "internalType": "uint256",
          "name": "tokenId",
          "type": "uint256"
        }
      ],
      "name": "getApproved",
      "outputs": [
        {
          "internalType": "address",
          "name": "",
          "type": "address"
        }
      ],
      "stateMutability": "view",
      "type": "function"
    },
    {
      "inputs": [],
      "name": "getHappySvg",
      "outputs": [
        {
          "internalType": "string",
          "name": "",
          "type": "string"
        }
      ],
      "stateMutability": "view",
      "type": "function"
    },
    {
      "inputs": [],
      "name": "getPriceFeedAddress",
      "outputs": [
        {
          "internalType": "contract AggregatorV3Interface",
          "name": "",
          "type": "address"
        }
      ],
      "stateMutability": "view",
      "type": "function"
    },
    {
      "inputs": [],
      "name": "getSadSvg",
      "outputs": [
        {
          "internalType": "string",
          "name": "",
          "type": "string"
        }
      ],
      "stateMutability": "view",
      "type": "function"
    },
    {
      "inputs": [],
      "name": "getTokenCounter",
      "outputs": [
        {
          "internalType": "uint256",
          "name": "",
          "type": "uint256"
        }
      ],
      "stateMutability": "view",
      "type": "function"
    },
    {
      "inputs": [
        {
          "internalType": "address",
          "name": "owner",
          "type": "address"
        },
        {
          "internalType": "address",
          "name": "operator",
          "type": "address"
        }
      ],
      "name": "isApprovedForAll",
      "outputs": [
        {
          "internalType": "bool",
          "name": "",
          "type": "bool"
        }
      ],
      "stateMutability": "view",
      "type": "function"
    },
    {
      "inputs": [
        {
          "internalType": "int256",
          "name": "priceLimit",
          "type": "int256"
        }
      ],
      "name": "mint",
      "outputs": [],
      "stateMutability": "nonpayable",
      "type": "function"
    },
    {
      "inputs": [],
      "name": "name",
      "outputs": [
        {
          "internalType": "string",
          "name": "",
          "type": "string"
        }
      ],
      "stateMutability": "view",
      "type": "function"
    },
    {
      "inputs": [
        {
          "internalType": "uint256",
          "name": "tokenId",
          "type": "uint256"
        }
      ],
      "name": "ownerOf",
      "outputs": [
        {
          "internalType": "address",
          "name": "",
          "type": "address"
        }
      ],
      "stateMutability": "view",
      "type": "function"
    },
    {
      "inputs": [
        {
          "internalType": "address",
          "name": "from",
          "type": "address"
        },
        {
          "internalType": "address",
          "name": "to",
          "type": "address"
        },
        {
          "internalType": "uint256",
          "name": "tokenId",
          "type": "uint256"
        }
      ],
      "name": "safeTransferFrom",
      "outputs": [],
      "stateMutability": "nonpayable",
      "type": "function"
    },
    {
      "inputs": [
        {
          "internalType": "address",
          "name": "from",
          "type": "address"
        },
        {
          "internalType": "address",
          "name": "to",
          "type": "address"
        },
        {
          "internalType": "uint256",
          "name": "tokenId",
          "type": "uint256"
        },
        {
          "internalType": "bytes",
          "name": "data",
          "type": "bytes"
        }
      ],
      "name": "safeTransferFrom",
      "outputs": [],
      "stateMutability": "nonpayable",
      "type": "function"
    },
    {
      "inputs": [
        {
          "internalType": "address",
          "name": "operator",
          "type": "address"
        },
        {
          "internalType": "bool",
          "name": "approved",
          "type": "bool"
        }
      ],
      "name": "setApprovalForAll",
      "outputs": [],
      "stateMutability": "nonpayable",
      "type": "function"
    },
    {
      "inputs": [
        {
          "internalType": "bytes4",
          "name": "interfaceId",
          "type": "bytes4"
        }
      ],
      "name": "supportsInterface",
      "outputs": [
        {
          "internalType": "bool",
          "name": "",
          "type": "bool"
        }
      ],
      "stateMutability": "view",
      "type": "function"
    },
    {
      "inputs": [],
      "name": "symbol",
      "outputs": [
        {
          "internalType": "string",
          "name": "",
          "type": "string"
        }
      ],
      "stateMutability": "view",
      "type": "function"
    },
    {
      "inputs": [
        {
          "internalType": "uint256",
          "name": "tokenId",
          "type": "uint256"
        }
      ],
      "name": "tokenURI",
      "outputs": [
        {
          "internalType": "string",
          "name": "",
          "type": "string"
        }
      ],
      "stateMutability": "view",
      "type": "function"
    },
    {
      "inputs": [
        {
          "internalType": "address",
          "name": "from",
          "type": "address"
        },
        {
          "internalType": "address",
          "name": "to",
          "type": "address"
        },
        {
          "internalType": "uint256",
          "name": "tokenId",
          "type": "uint256"
        }
      ],
      "name": "transferFrom",
      "outputs": [],
      "stateMutability": "nonpayable",
      "type": "function"
    }
  ],
  "transactionHash": "0x5eb8a88e11421696b7f524e7086dde098c9363b8c017b3686c691a9ceff99ecb",
  "args": [
    "0x694AA1769357215DE4FAC081bf1f309aDC325306",
    "<svg width=\"31\" height=\"31\" viewBox=\"0 0 31 31\" fill=\"none\" xmlns=\"http://www.w3.org/2000/svg\">\n<path d=\"M13.211 19C12.4024 20.1774 11.0682 20.9496 9.53194 20.9496C9.07913 20.9496 8.64199 20.8825 8.22992 20.7577C8.13613 20.7293 8.03918 20.798 8.03918 20.896C8.03918 21.5057 7.5449 22 6.93518 22C6.32546 22 5.83118 21.5057 5.83118 20.896L5.83118 20C5.83117 19.4477 6.27889 19 6.83118 19H13.211Z\" fill=\"#212121\"/>\n<path d=\"M16.7505 19C17.5591 20.1774 18.8933 20.9496 20.4295 20.9496C20.8823 20.9496 21.3195 20.8825 21.7315 20.7577C21.8253 20.7293 21.9223 20.798 21.9223 20.896C21.9223 21.5057 22.4166 22 23.0263 22C23.636 22 24.1303 21.5057 24.1303 20.896L24.1303 20C24.1303 19.4477 23.6826 19 23.1303 19H16.7505Z\" fill=\"#212121\"/>\n<path d=\"M9.01564 7.40386L9.01884 7.38763C9.06448 7.11553 9.32186 6.93223 9.59408 6.9776C9.86646 7.02299 10.0505 7.28061 10.0051 7.55299L9.51188 7.47079C10.0051 7.55299 10.0049 7.55423 10.0049 7.55423L10.0046 7.55574L10.0039 7.5596L10.0019 7.5706C10.0003 7.57936 9.99809 7.59096 9.99516 7.60521C9.9893 7.63369 9.98067 7.67284 9.96859 7.72115C9.94447 7.81763 9.90645 7.95137 9.84916 8.11002C9.73501 8.42611 9.5417 8.84852 9.22342 9.27289C8.57355 10.1394 7.42874 10.975 5.50629 10.975C5.23014 10.975 5.00629 10.7511 5.00629 10.475C5.00629 10.1988 5.23014 9.97499 5.50629 9.97499C7.08873 9.97499 7.94671 9.30849 8.42342 8.67289C8.66842 8.34622 8.81934 8.01757 8.9086 7.77038C8.95302 7.64738 8.98149 7.54642 8.99845 7.47861C9.00691 7.44477 9.01245 7.41938 9.01564 7.40386Z\" fill=\"#212121\"/>\n<path d=\"M21.0235 7.40386L21.0204 7.38823L21.0201 7.38693C20.974 7.11546 20.7169 6.93229 20.445 6.9776C20.1726 7.02299 19.9886 7.28061 20.034 7.55299L20.5272 7.47079C20.034 7.55299 20.0342 7.55423 20.0342 7.55423L20.0345 7.55574L20.0352 7.5596L20.0372 7.5706C20.0388 7.57936 20.041 7.59096 20.0439 7.60521C20.0498 7.63369 20.0584 7.67284 20.0705 7.72115C20.0946 7.81763 20.1327 7.95137 20.19 8.11002C20.3041 8.42611 20.4974 8.84852 20.8157 9.27289C21.4656 10.1394 22.6104 10.975 24.5328 10.975C24.809 10.975 25.0328 10.7511 25.0328 10.475C25.0328 10.1988 24.809 9.97499 24.5328 9.97499C22.9504 9.97499 22.0924 9.30849 21.6157 8.67289C21.3707 8.34622 21.2198 8.01757 21.1305 7.77038C21.0861 7.64738 21.0576 7.54642 21.0407 7.47861C21.0322 7.44477 21.0267 7.41938 21.0235 7.40386Z\" fill=\"#212121\"/>\n<path d=\"M12.5171 22.4351C12.2092 22.158 11.735 22.183 11.4579 22.4908C11.1808 22.7987 11.2058 23.2729 11.5137 23.55C12.4397 24.3835 13.7649 24.7565 15.0196 24.7565C16.2743 24.7565 17.5994 24.3835 18.5255 23.55C18.8334 23.2729 18.8583 22.7987 18.5812 22.4908C18.3041 22.183 17.8299 22.158 17.522 22.4351C16.946 22.9535 16.018 23.2565 15.0196 23.2565C14.0211 23.2565 13.0932 22.9535 12.5171 22.4351Z\" fill=\"#212121\"/>\n<path d=\"M13.8168 16.2846C13.8168 16.9036 13.6648 17.4872 13.3961 18H6.83512C6.56641 17.4872 6.41442 16.9036 6.41442 16.2846C6.41442 14.2405 8.07149 12.5834 10.1156 12.5834C12.1597 12.5834 13.8168 14.2405 13.8168 16.2846ZM12.5289 16.3392C13.075 15.9614 13.1429 15.1132 12.6804 14.4447C12.218 13.7762 11.4003 13.5406 10.8541 13.9184C10.308 14.2963 10.2401 15.1445 10.7026 15.813C11.1651 16.4814 11.9827 16.7171 12.5289 16.3392Z\" fill=\"#212121\"/>\n<path d=\"M16.5653 18H23.1263C23.395 17.4872 23.547 16.9036 23.547 16.2846C23.547 14.2405 21.8899 12.5834 19.8458 12.5834C17.8017 12.5834 16.1446 14.2405 16.1446 16.2846C16.1446 16.9036 16.2966 17.4872 16.5653 18ZM22.0111 16.3392C21.4649 16.7171 20.6473 16.4814 20.1848 15.813C19.7223 15.1445 19.7902 14.2963 20.3363 13.9184C20.8825 13.5406 21.7001 13.7762 22.1626 14.4447C22.6251 15.1132 22.5572 15.9614 22.0111 16.3392Z\" fill=\"#212121\"/>\n<path d=\"M3.76831 5.39138C6.32115 2.61927 10.1082 0.962891 15.0184 0.962891C19.9287 0.962891 23.7157 2.61927 26.2686 5.39138C28.809 8.15001 30.0369 11.9148 30.0369 15.9813C30.0369 20.0479 28.809 23.8127 26.2686 26.5713C23.7157 29.3434 19.9287 30.9998 15.0184 30.9998C10.1082 30.9998 6.32115 29.3434 3.76831 26.5713C1.22789 23.8127 0 20.0479 0 15.9813C0 11.9148 1.22789 8.15001 3.76831 5.39138ZM5.23951 6.74621C3.10758 9.06127 2 12.3057 2 15.9813C2 19.657 3.10758 22.9014 5.23951 25.2165C7.35903 27.518 10.5812 28.9998 15.0184 28.9998C19.4557 28.9998 22.6779 27.518 24.7974 25.2165C26.9293 22.9014 28.0369 19.657 28.0369 15.9813C28.0369 12.3057 26.9293 9.06127 24.7974 6.74621C22.6779 4.44464 19.4557 2.96289 15.0184 2.96289C10.5812 2.96289 7.35903 4.44464 5.23951 6.74621Z\" fill=\"#212121\"/>\n</svg>\n",
    "<svg width=\"32\" height=\"32\" viewBox=\"0 0 32 32\" fill=\"none\" xmlns=\"http://www.w3.org/2000/svg\">\n<path d=\"M15.9989 3C18.3826 3 20.415 3.42822 22.1137 4.18173L23.2339 2.68824C23.2705 2.63941 23.3088 2.5933 23.3485 2.54987C21.2866 1.55124 18.8296 1 15.9989 1C13.1689 1 10.7124 1.55095 8.65084 2.54909C8.69087 2.59274 8.7294 2.63911 8.76625 2.68824L9.88578 4.18095C11.5842 3.42793 13.616 3 15.9989 3Z\" fill=\"#212121\"/>\n<path d=\"M3 15.9989C3 14.4369 3.20031 12.9529 3.59451 11.5853L1.89339 10.6402C1.86395 10.6239 1.83525 10.6069 1.80728 10.5894C1.26624 12.2797 1 14.1066 1 15.9989C1 20.06 2.22626 23.8199 4.76342 26.575C7.313 29.3436 11.0952 30.9978 15.9989 30.9978C20.9026 30.9978 24.6848 29.3436 27.2343 26.575C29.7715 23.8199 30.9978 20.06 30.9978 15.9989C30.9978 14.107 30.7317 12.2806 30.1909 10.5906C30.1635 10.6077 30.1355 10.6243 30.1067 10.6402L28.4036 11.5864C28.7976 12.9537 28.9978 14.4373 28.9978 15.9989C28.9978 19.6691 27.8918 22.9087 25.7631 25.2202C23.6469 27.5182 20.4296 28.9978 15.9989 28.9978C11.5681 28.9978 8.35088 27.5182 6.23462 25.2202C4.10595 22.9087 3 19.6691 3 15.9989Z\" fill=\"#212121\"/>\n<path d=\"M8.77745 14.062L5.72734 16.4343C5.45115 16.6491 5.05173 16.4308 5.08341 16.0823L5.38208 12.7969C5.45376 12.0085 5.05363 11.252 4.36158 10.8675L2.37897 9.7661C1.82665 9.45925 1.87802 8.64878 2.46466 8.41412L4.99408 7.40235C5.6216 7.15134 6.07991 6.60038 6.21246 5.93763L6.68417 3.57906C6.80623 2.96879 7.59277 2.79037 7.96619 3.28826L9.33037 5.10716C9.74657 5.66211 10.4206 5.96175 11.1114 5.89895L14.6039 5.58145C14.949 5.55008 15.1681 5.94256 14.9601 6.21981L13.1744 8.6008C12.7556 9.15919 12.6582 9.89552 12.9174 10.5436L14.3286 14.0715C14.4023 14.2558 14.2421 14.4484 14.0474 14.4095L10.3976 13.6795C9.82761 13.5655 9.23626 13.7051 8.77745 14.062Z\" fill=\"#212121\"/>\n<path d=\"M7 17C7 17 7 26 16 26C25 26 25 17 25 17H7Z\" fill=\"#212121\"/>\n<path d=\"M23.2225 14.062L26.2727 16.4343C26.5488 16.6491 26.9483 16.4308 26.9166 16.0823L26.6179 12.7969C26.5462 12.0085 26.9464 11.252 27.6384 10.8675L29.621 9.7661C30.1733 9.45925 30.122 8.64878 29.5353 8.41412L27.0059 7.40235C26.3784 7.15134 25.9201 6.60038 25.7875 5.93763L25.3158 3.57906C25.1938 2.96879 24.4072 2.79037 24.0338 3.28826L22.6696 5.10716C22.2534 5.66211 21.5794 5.96175 20.8886 5.89895L17.3961 5.58145C17.051 5.55008 16.8319 5.94256 17.0399 6.21981L18.8256 8.6008C19.2444 9.15919 19.3418 9.89552 19.0826 10.5436L17.6714 14.0715C17.5977 14.2558 17.7579 14.4484 17.9526 14.4095L21.6024 13.6795C22.1724 13.5655 22.7637 13.7051 23.2225 14.062Z\" fill=\"#212121\"/>\n</svg>\n"
  ],
  "numDeployments": 2,
  "solcInputHash": "b3854c2b95f0f95a3fafc183233c026f",
  "bytecode": "0x60a06040523480156200001157600080fd5b50604051620038c7380380620038c783398181016040528101906200003791906200064f565b6040518060400160405280600e81526020017f5356472048696f7320546f6b656e0000000000000000000000000000000000008152506040518060400160405280600481526020017f48535647000000000000000000000000000000000000000000000000000000008152508160009080519060200190620000bb9291906200039d565b508060019080519060200190620000d49291906200039d565b5050506000600681905550620000f0826200017160201b60201c565b60079080519060200190620001079291906200039d565b5062000119816200017160201b60201c565b60089080519060200190620001309291906200039d565b508273ffffffffffffffffffffffffffffffffffffffff1660808173ffffffffffffffffffffffffffffffffffffffff1660601b815250505050506200093a565b60606000620001ac836040516020016200018c919062000736565b6040516020818303038152906040526200020f60201b62000e591760201c565b90506040518060400160405280601a81526020017f646174613a696d6167652f7376672b786d6c3b6261736536342c00000000000081525081604051602001620001f89291906200074f565b604051602081830303815290604052915050919050565b6060600082511415620002345760405180602001604052806000815250905062000398565b6000604051806060016040528060408152602001620038876040913990506000600360028551620002669190620007b0565b6200027291906200083c565b600462000280919062000874565b90506000602082620002939190620007b0565b67ffffffffffffffff811115620002af57620002ae620004e1565b5b6040519080825280601f01601f191660200182016040528015620002e25781602001600182028036833780820191505090505b509050818152600183018586518101602084015b8183101562000353576003830192508251603f8160121c168501518253600182019150603f81600c1c168501518253600182019150603f8160061c168501518253600182019150603f8116850151825360018201915050620002f6565b60038951066001811462000370576002811462000381576200038c565b613d3d60f01b60028303526200038c565b603d60f81b60018303525b50505050508093505050505b919050565b828054620003ab9062000904565b90600052602060002090601f016020900481019282620003cf57600085556200041b565b82601f10620003ea57805160ff19168380011785556200041b565b828001600101855582156200041b579182015b828111156200041a578251825591602001919060010190620003fd565b5b5090506200042a91906200042e565b5090565b5b80821115620004495760008160009055506001016200042f565b5090565b6000604051905090565b600080fd5b600080fd5b600073ffffffffffffffffffffffffffffffffffffffff82169050919050565b60006200048e8262000461565b9050919050565b620004a08162000481565b8114620004ac57600080fd5b50565b600081519050620004c08162000495565b92915050565b600080fd5b600080fd5b6000601f19601f8301169050919050565b7f4e487b7100000000000000000000000000000000000000000000000000000000600052604160045260246000fd5b6200051b82620004d0565b810181811067ffffffffffffffff821117156200053d576200053c620004e1565b5b80604052505050565b6000620005526200044d565b905062000560828262000510565b919050565b600067ffffffffffffffff821115620005835762000582620004e1565b5b6200058e82620004d0565b9050602081019050919050565b60005b83811015620005bb5780820151818401526020810190506200059e565b83811115620005cb576000848401525b50505050565b6000620005e8620005e28462000565565b62000546565b905082815260208101848484011115620006075762000606620004cb565b5b620006148482856200059b565b509392505050565b600082601f830112620006345762000633620004c6565b5b815162000646848260208601620005d1565b91505092915050565b6000806000606084860312156200066b576200066a62000457565b5b60006200067b86828701620004af565b935050602084015167ffffffffffffffff8111156200069f576200069e6200045c565b5b620006ad868287016200061c565b925050604084015167ffffffffffffffff811115620006d157620006d06200045c565b5b620006df868287016200061c565b9150509250925092565b600081519050919050565b600081905092915050565b60006200070c82620006e9565b620007188185620006f4565b93506200072a8185602086016200059b565b80840191505092915050565b6000620007448284620006ff565b915081905092915050565b60006200075d8285620006ff565b91506200076b8284620006ff565b91508190509392505050565b6000819050919050565b7f4e487b7100000000000000000000000000000000000000000000000000000000600052601160045260246000fd5b6000620007bd8262000777565b9150620007ca8362000777565b9250827fffffffffffffffffffffffffffffffffffffffffffffffffffffffffffffffff0382111562000802576200080162000781565b5b828201905092915050565b7f4e487b7100000000000000000000000000000000000000000000000000000000600052601260045260246000fd5b6000620008498262000777565b9150620008568362000777565b9250826200086957620008686200080d565b5b828204905092915050565b6000620008818262000777565b91506200088e8362000777565b9250817fffffffffffffffffffffffffffffffffffffffffffffffffffffffffffffffff0483118215151615620008ca57620008c962000781565b5b828202905092915050565b7f4e487b7100000000000000000000000000000000000000000000000000000000600052602260045260246000fd5b600060028204905060018216806200091d57607f821691505b60208210811415620009345762000933620008d5565b5b50919050565b60805160601c612f27620009606000396000818161066d0152610bfd0152612f276000f3fe608060405234801561001057600080fd5b50600436106101165760003560e01c806370a08231116100a2578063a6893cd311610071578063a6893cd3146102e1578063b88d4fde146102ff578063bdbaae631461031b578063c87b56dd14610337578063e985e9c51461036757610116565b806370a08231146102595780638f4daa511461028957806395d89b41146102a7578063a22cb465146102c557610116565b80630f0f30b2116100e95780630f0f30b2146101b557806323b872dd146101d357806342842e0e146101ef5780636352211e1461020b5780636e02007d1461023b57610116565b806301ffc9a71461011b57806306fdde031461014b578063081812fc14610169578063095ea7b314610199575b600080fd5b61013560048036038101906101309190611be7565b610397565b6040516101429190611c2f565b60405180910390f35b610153610479565b6040516101609190611ce3565b60405180910390f35b610183600480360381019061017e9190611d3b565b61050b565b6040516101909190611da9565b60405180910390f35b6101b360048036038101906101ae9190611df0565b610551565b005b6101bd610669565b6040516101ca9190611e8f565b60405180910390f35b6101ed60048036038101906101e89190611eaa565b610691565b005b61020960048036038101906102049190611eaa565b6106f1565b005b61022560048036038101906102209190611d3b565b610711565b6040516102329190611da9565b60405180910390f35b610243610798565b6040516102509190611f0c565b60405180910390f35b610273600480360381019061026e9190611f27565b6107a2565b6040516102809190611f0c565b60405180910390f35b61029161085a565b60405161029e9190611ce3565b60405180910390f35b6102af6108ec565b6040516102bc9190611ce3565b60405180910390f35b6102df60048036038101906102da9190611f80565b61097e565b005b6102e9610994565b6040516102f69190611ce3565b60405180910390f35b610319600480360381019061031491906120f5565b610a26565b005b610335600480360381019061033091906121ae565b610a88565b005b610351600480360381019061034c9190611d3b565b610b08565b60405161035e9190611ce3565b60405180910390f35b610381600480360381019061037c91906121db565b610dc5565b60405161038e9190611c2f565b60405180910390f35b60007f80ac58cd000000000000000000000000000000000000000000000000000000007bffffffffffffffffffffffffffffffffffffffffffffffffffffffff1916827bffffffffffffffffffffffffffffffffffffffffffffffffffffffff1916148061046257507f5b5e139f000000000000000000000000000000000000000000000000000000007bffffffffffffffffffffffffffffffffffffffffffffffffffffffff1916827bffffffffffffffffffffffffffffffffffffffffffffffffffffffff1916145b80610472575061047182610fd2565b5b9050919050565b6060600080546104889061224a565b80601f01602080910402602001604051908101604052809291908181526020018280546104b49061224a565b80156105015780601f106104d657610100808354040283529160200191610501565b820191906000526020600020905b8154815290600101906020018083116104e457829003601f168201915b5050505050905090565b60006105168261103c565b6004600083815260200190815260200160002060009054906101000a900473ffffffffffffffffffffffffffffffffffffffff169050919050565b600061055c82610711565b90508073ffffffffffffffffffffffffffffffffffffffff168373ffffffffffffffffffffffffffffffffffffffff1614156105cd576040517f08c379a00000000000000000000000000000000000000000000000000000000081526004016105c4906122ee565b60405180910390fd5b8073ffffffffffffffffffffffffffffffffffffffff166105ec611087565b73ffffffffffffffffffffffffffffffffffffffff16148061061b575061061a81610615611087565b610dc5565b5b61065a576040517f08c379a000000000000000000000000000000000000000000000000000000000815260040161065190612380565b60405180910390fd5b610664838361108f565b505050565b60007f0000000000000000000000000000000000000000000000000000000000000000905090565b6106a261069c611087565b82611148565b6106e1576040517f08c379a00000000000000000000000000000000000000000000000000000000081526004016106d890612412565b60405180910390fd5b6106ec8383836111dd565b505050565b61070c83838360405180602001604052806000815250610a26565b505050565b60008061071d836114d7565b9050600073ffffffffffffffffffffffffffffffffffffffff168173ffffffffffffffffffffffffffffffffffffffff16141561078f576040517f08c379a00000000000000000000000000000000000000000000000000000000081526004016107869061247e565b60405180910390fd5b80915050919050565b6000600654905090565b60008073ffffffffffffffffffffffffffffffffffffffff168273ffffffffffffffffffffffffffffffffffffffff161415610813576040517f08c379a000000000000000000000000000000000000000000000000000000000815260040161080a90612510565b60405180910390fd5b600360008373ffffffffffffffffffffffffffffffffffffffff1673ffffffffffffffffffffffffffffffffffffffff168152602001908152602001600020549050919050565b6060600880546108699061224a565b80601f01602080910402602001604051908101604052809291908181526020018280546108959061224a565b80156108e25780601f106108b7576101008083540402835291602001916108e2565b820191906000526020600020905b8154815290600101906020018083116108c557829003601f168201915b5050505050905090565b6060600180546108fb9061224a565b80601f01602080910402602001604051908101604052809291908181526020018280546109279061224a565b80156109745780601f1061094957610100808354040283529160200191610974565b820191906000526020600020905b81548152906001019060200180831161095757829003601f168201915b5050505050905090565b610990610989611087565b8383611514565b5050565b6060600780546109a39061224a565b80601f01602080910402602001604051908101604052809291908181526020018280546109cf9061224a565b8015610a1c5780601f106109f157610100808354040283529160200191610a1c565b820191906000526020600020905b8154815290600101906020018083116109ff57829003601f168201915b5050505050905090565b610a37610a31611087565b83611148565b610a76576040517f08c379a0000000000000000000000000000000000000000000000000000000008152600401610a6d90612412565b60405180910390fd5b610a8284848484611681565b50505050565b6001600654610a97919061255f565b6006819055508060096000600654815260200190815260200160002081905550610aca610ac2611087565b6006546116dd565b7f25fe3a996149ce0f27840bd9ec024ac39e95985c0d3974c4fcaaed30903b567860065482604051610afd9291906125c4565b60405180910390a150565b6060610b13826116fb565b610b52576040517f08c379a0000000000000000000000000000000000000000000000000000000008152600401610b4990612639565b60405180910390fd5b600060078054610b619061224a565b80601f0160208091040260200160405190810160405280929190818152602001828054610b8d9061224a565b8015610bda5780601f10610baf57610100808354040283529160200191610bda565b820191906000526020600020905b815481529060010190602001808311610bbd57829003601f168201915b5050505050905060006009600085815260200190815260200160002054905060007f000000000000000000000000000000000000000000000000000000000000000073ffffffffffffffffffffffffffffffffffffffff1663feaf968c6040518163ffffffff1660e01b815260040160a06040518083038186803b158015610c6157600080fd5b505afa158015610c75573d6000803e3d6000fd5b505050506040513d601f19601f82011682018060405250810190610c9991906126c5565b505050915050808213610d345760088054610cb39061224a565b80601f0160208091040260200160405190810160405280929190818152602001828054610cdf9061224a565b8015610d2c5780601f10610d0157610100808354040283529160200191610d2c565b820191906000526020600020905b815481529060010190602001808311610d0f57829003601f168201915b505050505092505b6040518060400160405280601d81526020017f646174613a6170706c69636174696f6e2f6a736f6e3b6261736536342c000000815250610d9b610d75610479565b85604051602001610d87929190612990565b604051602081830303815290604052610e59565b604051602001610dac9291906129f6565b6040516020818303038152906040529350505050919050565b6000600560008473ffffffffffffffffffffffffffffffffffffffff1673ffffffffffffffffffffffffffffffffffffffff16815260200190815260200160002060008373ffffffffffffffffffffffffffffffffffffffff1673ffffffffffffffffffffffffffffffffffffffff16815260200190815260200160002060009054906101000a900460ff16905092915050565b6060600082511415610e7c57604051806020016040528060008152509050610fcd565b6000604051806060016040528060408152602001612eb26040913990506000600360028551610eab919061255f565b610eb59190612a49565b6004610ec19190612a7a565b90506000602082610ed2919061255f565b67ffffffffffffffff811115610eeb57610eea611fca565b5b6040519080825280601f01601f191660200182016040528015610f1d5781602001600182028036833780820191505090505b509050818152600183018586518101602084015b81831015610f8c576003830192508251603f8160121c168501518253600182019150603f81600c1c168501518253600182019150603f8160061c168501518253600182019150603f8116850151825360018201915050610f31565b600389510660018114610fa65760028114610fb657610fc1565b613d3d60f01b6002830352610fc1565b603d60f81b60018303525b50505050508093505050505b919050565b60007f01ffc9a7000000000000000000000000000000000000000000000000000000007bffffffffffffffffffffffffffffffffffffffffffffffffffffffff1916827bffffffffffffffffffffffffffffffffffffffffffffffffffffffff1916149050919050565b611045816116fb565b611084576040517f08c379a000000000000000000000000000000000000000000000000000000000815260040161107b9061247e565b60405180910390fd5b50565b600033905090565b816004600083815260200190815260200160002060006101000a81548173ffffffffffffffffffffffffffffffffffffffff021916908373ffffffffffffffffffffffffffffffffffffffff160217905550808273ffffffffffffffffffffffffffffffffffffffff1661110283610711565b73ffffffffffffffffffffffffffffffffffffffff167f8c5be1e5ebec7d5bd14f71427d1e84f3dd0314c0f7b2291e5b200ac8c7c3b92560405160405180910390a45050565b60008061115483610711565b90508073ffffffffffffffffffffffffffffffffffffffff168473ffffffffffffffffffffffffffffffffffffffff16148061119657506111958185610dc5565b5b806111d457508373ffffffffffffffffffffffffffffffffffffffff166111bc8461050b565b73ffffffffffffffffffffffffffffffffffffffff16145b91505092915050565b8273ffffffffffffffffffffffffffffffffffffffff166111fd82610711565b73ffffffffffffffffffffffffffffffffffffffff1614611253576040517f08c379a000000000000000000000000000000000000000000000000000000000815260040161124a90612b46565b60405180910390fd5b600073ffffffffffffffffffffffffffffffffffffffff168273ffffffffffffffffffffffffffffffffffffffff1614156112c3576040517f08c379a00000000000000000000000000000000000000000000000000000000081526004016112ba90612bd8565b60405180910390fd5b6112d0838383600161173c565b8273ffffffffffffffffffffffffffffffffffffffff166112f082610711565b73ffffffffffffffffffffffffffffffffffffffff1614611346576040517f08c379a000000000000000000000000000000000000000000000000000000000815260040161133d90612b46565b60405180910390fd5b6004600082815260200190815260200160002060006101000a81549073ffffffffffffffffffffffffffffffffffffffff02191690556001600360008573ffffffffffffffffffffffffffffffffffffffff1673ffffffffffffffffffffffffffffffffffffffff168152602001908152602001600020600082825403925050819055506001600360008473ffffffffffffffffffffffffffffffffffffffff1673ffffffffffffffffffffffffffffffffffffffff16815260200190815260200160002060008282540192505081905550816002600083815260200190815260200160002060006101000a81548173ffffffffffffffffffffffffffffffffffffffff021916908373ffffffffffffffffffffffffffffffffffffffff160217905550808273ffffffffffffffffffffffffffffffffffffffff168473ffffffffffffffffffffffffffffffffffffffff167fddf252ad1be2c89b69c2b068fc378daa952ba7f163c4a11628f55a4df523b3ef60405160405180910390a46114d28383836001611742565b505050565b60006002600083815260200190815260200160002060009054906101000a900473ffffffffffffffffffffffffffffffffffffffff169050919050565b8173ffffffffffffffffffffffffffffffffffffffff168373ffffffffffffffffffffffffffffffffffffffff161415611583576040517f08c379a000000000000000000000000000000000000000000000000000000000815260040161157a90612c44565b60405180910390fd5b80600560008573ffffffffffffffffffffffffffffffffffffffff1673ffffffffffffffffffffffffffffffffffffffff16815260200190815260200160002060008473ffffffffffffffffffffffffffffffffffffffff1673ffffffffffffffffffffffffffffffffffffffff16815260200190815260200160002060006101000a81548160ff0219169083151502179055508173ffffffffffffffffffffffffffffffffffffffff168373ffffffffffffffffffffffffffffffffffffffff167f17307eab39ab6107e8899845ad3d59bd9653f200f220920489ca2b5937696c31836040516116749190611c2f565b60405180910390a3505050565b61168c8484846111dd565b61169884848484611748565b6116d7576040517f08c379a00000000000000000000000000000000000000000000000000000000081526004016116ce90612cd6565b60405180910390fd5b50505050565b6116f78282604051806020016040528060008152506118df565b5050565b60008073ffffffffffffffffffffffffffffffffffffffff1661171d836114d7565b73ffffffffffffffffffffffffffffffffffffffff1614159050919050565b50505050565b50505050565b60006117698473ffffffffffffffffffffffffffffffffffffffff1661193a565b156118d2578373ffffffffffffffffffffffffffffffffffffffff1663150b7a02611792611087565b8786866040518563ffffffff1660e01b81526004016117b49493929190612d4b565b602060405180830381600087803b1580156117ce57600080fd5b505af19250505080156117ff57506040513d601f19601f820116820180604052508101906117fc9190612dac565b60015b611882573d806000811461182f576040519150601f19603f3d011682016040523d82523d6000602084013e611834565b606091505b5060008151141561187a576040517f08c379a000000000000000000000000000000000000000000000000000000000815260040161187190612cd6565b60405180910390fd5b805181602001fd5b63150b7a0260e01b7bffffffffffffffffffffffffffffffffffffffffffffffffffffffff1916817bffffffffffffffffffffffffffffffffffffffffffffffffffffffff1916149150506118d7565b600190505b949350505050565b6118e9838361195d565b6118f66000848484611748565b611935576040517f08c379a000000000000000000000000000000000000000000000000000000000815260040161192c90612cd6565b60405180910390fd5b505050565b6000808273ffffffffffffffffffffffffffffffffffffffff163b119050919050565b600073ffffffffffffffffffffffffffffffffffffffff168273ffffffffffffffffffffffffffffffffffffffff1614156119cd576040517f08c379a00000000000000000000000000000000000000000000000000000000081526004016119c490612e25565b60405180910390fd5b6119d6816116fb565b15611a16576040517f08c379a0000000000000000000000000000000000000000000000000000000008152600401611a0d90612e91565b60405180910390fd5b611a2460008383600161173c565b611a2d816116fb565b15611a6d576040517f08c379a0000000000000000000000000000000000000000000000000000000008152600401611a6490612e91565b60405180910390fd5b6001600360008473ffffffffffffffffffffffffffffffffffffffff1673ffffffffffffffffffffffffffffffffffffffff16815260200190815260200160002060008282540192505081905550816002600083815260200190815260200160002060006101000a81548173ffffffffffffffffffffffffffffffffffffffff021916908373ffffffffffffffffffffffffffffffffffffffff160217905550808273ffffffffffffffffffffffffffffffffffffffff16600073ffffffffffffffffffffffffffffffffffffffff167fddf252ad1be2c89b69c2b068fc378daa952ba7f163c4a11628f55a4df523b3ef60405160405180910390a4611b77600083836001611742565b5050565b6000604051905090565b600080fd5b600080fd5b60007fffffffff0000000000000000000000000000000000000000000000000000000082169050919050565b611bc481611b8f565b8114611bcf57600080fd5b50565b600081359050611be181611bbb565b92915050565b600060208284031215611bfd57611bfc611b85565b5b6000611c0b84828501611bd2565b91505092915050565b60008115159050919050565b611c2981611c14565b82525050565b6000602082019050611c446000830184611c20565b92915050565b600081519050919050565b600082825260208201905092915050565b60005b83811015611c84578082015181840152602081019050611c69565b83811115611c93576000848401525b50505050565b6000601f19601f8301169050919050565b6000611cb582611c4a565b611cbf8185611c55565b9350611ccf818560208601611c66565b611cd881611c99565b840191505092915050565b60006020820190508181036000830152611cfd8184611caa565b905092915050565b6000819050919050565b611d1881611d05565b8114611d2357600080fd5b50565b600081359050611d3581611d0f565b92915050565b600060208284031215611d5157611d50611b85565b5b6000611d5f84828501611d26565b91505092915050565b600073ffffffffffffffffffffffffffffffffffffffff82169050919050565b6000611d9382611d68565b9050919050565b611da381611d88565b82525050565b6000602082019050611dbe6000830184611d9a565b92915050565b611dcd81611d88565b8114611dd857600080fd5b50565b600081359050611dea81611dc4565b92915050565b60008060408385031215611e0757611e06611b85565b5b6000611e1585828601611ddb565b9250506020611e2685828601611d26565b9150509250929050565b6000819050919050565b6000611e55611e50611e4b84611d68565b611e30565b611d68565b9050919050565b6000611e6782611e3a565b9050919050565b6000611e7982611e5c565b9050919050565b611e8981611e6e565b82525050565b6000602082019050611ea46000830184611e80565b92915050565b600080600060608486031215611ec357611ec2611b85565b5b6000611ed186828701611ddb565b9350506020611ee286828701611ddb565b9250506040611ef386828701611d26565b9150509250925092565b611f0681611d05565b82525050565b6000602082019050611f216000830184611efd565b92915050565b600060208284031215611f3d57611f3c611b85565b5b6000611f4b84828501611ddb565b91505092915050565b611f5d81611c14565b8114611f6857600080fd5b50565b600081359050611f7a81611f54565b92915050565b60008060408385031215611f9757611f96611b85565b5b6000611fa585828601611ddb565b9250506020611fb685828601611f6b565b9150509250929050565b600080fd5b600080fd5b7f4e487b7100000000000000000000000000000000000000000000000000000000600052604160045260246000fd5b61200282611c99565b810181811067ffffffffffffffff8211171561202157612020611fca565b5b80604052505050565b6000612034611b7b565b90506120408282611ff9565b919050565b600067ffffffffffffffff8211156120605761205f611fca565b5b61206982611c99565b9050602081019050919050565b82818337600083830152505050565b600061209861209384612045565b61202a565b9050828152602081018484840111156120b4576120b3611fc5565b5b6120bf848285612076565b509392505050565b600082601f8301126120dc576120db611fc0565b5b81356120ec848260208601612085565b91505092915050565b6000806000806080858703121561210f5761210e611b85565b5b600061211d87828801611ddb565b945050602061212e87828801611ddb565b935050604061213f87828801611d26565b925050606085013567ffffffffffffffff8111156121605761215f611b8a565b5b61216c878288016120c7565b91505092959194509250565b6000819050919050565b61218b81612178565b811461219657600080fd5b50565b6000813590506121a881612182565b92915050565b6000602082840312156121c4576121c3611b85565b5b60006121d284828501612199565b91505092915050565b600080604083850312156121f2576121f1611b85565b5b600061220085828601611ddb565b925050602061221185828601611ddb565b9150509250929050565b7f4e487b7100000000000000000000000000000000000000000000000000000000600052602260045260246000fd5b6000600282049050600182168061226257607f821691505b602082108114156122765761227561221b565b5b50919050565b7f4552433732313a20617070726f76616c20746f2063757272656e74206f776e6560008201527f7200000000000000000000000000000000000000000000000000000000000000602082015250565b60006122d8602183611c55565b91506122e38261227c565b604082019050919050565b60006020820190508181036000830152612307816122cb565b9050919050565b7f4552433732313a20617070726f76652063616c6c6572206973206e6f7420746f60008201527f6b656e206f776e6572206f7220617070726f76656420666f7220616c6c000000602082015250565b600061236a603d83611c55565b91506123758261230e565b604082019050919050565b600060208201905081810360008301526123998161235d565b9050919050565b7f4552433732313a2063616c6c6572206973206e6f7420746f6b656e206f776e6560008201527f72206f7220617070726f76656400000000000000000000000000000000000000602082015250565b60006123fc602d83611c55565b9150612407826123a0565b604082019050919050565b6000602082019050818103600083015261242b816123ef565b9050919050565b7f4552433732313a20696e76616c696420746f6b656e2049440000000000000000600082015250565b6000612468601883611c55565b915061247382612432565b602082019050919050565b600060208201905081810360008301526124978161245b565b9050919050565b7f4552433732313a2061646472657373207a65726f206973206e6f74206120766160008201527f6c6964206f776e65720000000000000000000000000000000000000000000000602082015250565b60006124fa602983611c55565b91506125058261249e565b604082019050919050565b60006020820190508181036000830152612529816124ed565b9050919050565b7f4e487b7100000000000000000000000000000000000000000000000000000000600052601160045260246000fd5b600061256a82611d05565b915061257583611d05565b9250827fffffffffffffffffffffffffffffffffffffffffffffffffffffffffffffffff038211156125aa576125a9612530565b5b828201905092915050565b6125be81612178565b82525050565b60006040820190506125d96000830185611efd565b6125e660208301846125b5565b9392505050565b7f546f6b656e20646f6573206e6f74206578697374000000000000000000000000600082015250565b6000612623601483611c55565b915061262e826125ed565b602082019050919050565b6000602082019050818103600083015261265281612616565b9050919050565b600069ffffffffffffffffffff82169050919050565b61267881612659565b811461268357600080fd5b50565b6000815190506126958161266f565b92915050565b6000815190506126aa81612182565b92915050565b6000815190506126bf81611d0f565b92915050565b600080600080600060a086880312156126e1576126e0611b85565b5b60006126ef88828901612686565b95505060206127008882890161269b565b9450506040612711888289016126b0565b9350506060612722888289016126b0565b925050608061273388828901612686565b9150509295509295909350565b600081905092915050565b7f7b226e616d653a223a2200000000000000000000000000000000000000000000600082015250565b6000612781600a83612740565b915061278c8261274b565b600a82019050919050565b60006127a282611c4a565b6127ac8185612740565b93506127bc818560208601611c66565b80840191505092915050565b7f222c000000000000000000000000000000000000000000000000000000000000600082015250565b60006127fe600283612740565b9150612809826127c8565b600282019050919050565b7f226465736372697074696f6e223a22416e64204e46542074686174206368616e60008201527f676573206265736564206f6e2074686520457468207072696365222c00000000602082015250565b6000612870603c83612740565b915061287b82612814565b603c82019050919050565b7f2261747472696275746573223a5b7b2274726169745f74797065223a22636f6f60008201527f6c6e657373222c2276616c7565223a3130307d5d2c0000000000000000000000602082015250565b60006128e2603583612740565b91506128ed82612886565b603582019050919050565b7f22696d616765223a220000000000000000000000000000000000000000000000600082015250565b600061292e600983612740565b9150612939826128f8565b600982019050919050565b7f227d000000000000000000000000000000000000000000000000000000000000600082015250565b600061297a600283612740565b915061298582612944565b600282019050919050565b600061299b82612774565b91506129a78285612797565b91506129b2826127f1565b91506129bd82612863565b91506129c8826128d5565b91506129d382612921565b91506129df8284612797565b91506129ea8261296d565b91508190509392505050565b6000612a028285612797565b9150612a0e8284612797565b91508190509392505050565b7f4e487b7100000000000000000000000000000000000000000000000000000000600052601260045260246000fd5b6000612a5482611d05565b9150612a5f83611d05565b925082612a6f57612a6e612a1a565b5b828204905092915050565b6000612a8582611d05565b9150612a9083611d05565b9250817fffffffffffffffffffffffffffffffffffffffffffffffffffffffffffffffff0483118215151615612ac957612ac8612530565b5b828202905092915050565b7f4552433732313a207472616e736665722066726f6d20696e636f72726563742060008201527f6f776e6572000000000000000000000000000000000000000000000000000000602082015250565b6000612b30602583611c55565b9150612b3b82612ad4565b604082019050919050565b60006020820190508181036000830152612b5f81612b23565b9050919050565b7f4552433732313a207472616e7366657220746f20746865207a65726f2061646460008201527f7265737300000000000000000000000000000000000000000000000000000000602082015250565b6000612bc2602483611c55565b9150612bcd82612b66565b604082019050919050565b60006020820190508181036000830152612bf181612bb5565b9050919050565b7f4552433732313a20617070726f766520746f2063616c6c657200000000000000600082015250565b6000612c2e601983611c55565b9150612c3982612bf8565b602082019050919050565b60006020820190508181036000830152612c5d81612c21565b9050919050565b7f4552433732313a207472616e7366657220746f206e6f6e20455243373231526560008201527f63656976657220696d706c656d656e7465720000000000000000000000000000602082015250565b6000612cc0603283611c55565b9150612ccb82612c64565b604082019050919050565b60006020820190508181036000830152612cef81612cb3565b9050919050565b600081519050919050565b600082825260208201905092915050565b6000612d1d82612cf6565b612d278185612d01565b9350612d37818560208601611c66565b612d4081611c99565b840191505092915050565b6000608082019050612d606000830187611d9a565b612d6d6020830186611d9a565b612d7a6040830185611efd565b8181036060830152612d8c8184612d12565b905095945050505050565b600081519050612da681611bbb565b92915050565b600060208284031215612dc257612dc1611b85565b5b6000612dd084828501612d97565b91505092915050565b7f4552433732313a206d696e7420746f20746865207a65726f2061646472657373600082015250565b6000612e0f602083611c55565b9150612e1a82612dd9565b602082019050919050565b60006020820190508181036000830152612e3e81612e02565b9050919050565b7f4552433732313a20746f6b656e20616c7265616479206d696e74656400000000600082015250565b6000612e7b601c83611c55565b9150612e8682612e45565b602082019050919050565b60006020820190508181036000830152612eaa81612e6e565b905091905056fe4142434445464748494a4b4c4d4e4f505152535455565758595a6162636465666768696a6b6c6d6e6f707172737475767778797a303132333435363738392b2fa2646970667358221220c278a910e6c1b818a7635a797dfca9acb532ad30afe8416711def483462f493564736f6c634300080800334142434445464748494a4b4c4d4e4f505152535455565758595a6162636465666768696a6b6c6d6e6f707172737475767778797a303132333435363738392b2f",
  "devdoc": {
    "kind": "dev",
    "methods": {
      "approve(address,uint256)": {
        "details": "See {IERC721-approve}."
      },
      "balanceOf(address)": {
        "details": "See {IERC721-balanceOf}."
      },
      "getApproved(uint256)": {
        "details": "See {IERC721-getApproved}."
      },
      "isApprovedForAll(address,address)": {
        "details": "See {IERC721-isApprovedForAll}."
      },
      "name()": {
        "details": "See {IERC721Metadata-name}."
      },
      "ownerOf(uint256)": {
        "details": "See {IERC721-ownerOf}."
      },
      "safeTransferFrom(address,address,uint256)": {
        "details": "See {IERC721-safeTransferFrom}."
      },
      "safeTransferFrom(address,address,uint256,bytes)": {
        "details": "See {IERC721-safeTransferFrom}."
      },
      "setApprovalForAll(address,bool)": {
        "details": "See {IERC721-setApprovalForAll}."
      },
      "supportsInterface(bytes4)": {
        "details": "See {IERC165-supportsInterface}."
      },
      "symbol()": {
        "details": "See {IERC721Metadata-symbol}."
      },
      "tokenURI(uint256)": {
        "details": "See {IERC721Metadata-tokenURI}."
      },
      "transferFrom(address,address,uint256)": {
        "details": "See {IERC721-transferFrom}."
      }
    },
    "version": 1
  },
  "userdoc": {
    "kind": "user",
    "methods": {},
    "version": 1
  },
  "storageLayout": {
    "storage": [
      {
        "astId": 71,
        "contract": "contracts/SvgHiosToken.sol:SvgHiosToken",
        "label": "_name",
        "offset": 0,
        "slot": "0",
        "type": "t_string_storage"
      },
      {
        "astId": 73,
        "contract": "contracts/SvgHiosToken.sol:SvgHiosToken",
        "label": "_symbol",
        "offset": 0,
        "slot": "1",
        "type": "t_string_storage"
      },
      {
        "astId": 77,
        "contract": "contracts/SvgHiosToken.sol:SvgHiosToken",
        "label": "_owners",
        "offset": 0,
        "slot": "2",
        "type": "t_mapping(t_uint256,t_address)"
      },
      {
        "astId": 81,
        "contract": "contracts/SvgHiosToken.sol:SvgHiosToken",
        "label": "_balances",
        "offset": 0,
        "slot": "3",
        "type": "t_mapping(t_address,t_uint256)"
      },
      {
        "astId": 85,
        "contract": "contracts/SvgHiosToken.sol:SvgHiosToken",
        "label": "_tokenApprovals",
        "offset": 0,
        "slot": "4",
        "type": "t_mapping(t_uint256,t_address)"
      },
      {
        "astId": 91,
        "contract": "contracts/SvgHiosToken.sol:SvgHiosToken",
        "label": "_operatorApprovals",
        "offset": 0,
        "slot": "5",
        "type": "t_mapping(t_address,t_mapping(t_address,t_bool))"
      },
      {
        "astId": 3733,
        "contract": "contracts/SvgHiosToken.sol:SvgHiosToken",
        "label": "s_tokenCounter",
        "offset": 0,
        "slot": "6",
        "type": "t_uint256"
      },
      {
        "astId": 3735,
        "contract": "contracts/SvgHiosToken.sol:SvgHiosToken",
        "label": "i_sadTokenURI",
        "offset": 0,
        "slot": "7",
        "type": "t_string_storage"
      },
      {
        "astId": 3737,
        "contract": "contracts/SvgHiosToken.sol:SvgHiosToken",
        "label": "i_happyTokeniURI",
        "offset": 0,
        "slot": "8",
        "type": "t_string_storage"
      },
      {
        "astId": 3747,
        "contract": "contracts/SvgHiosToken.sol:SvgHiosToken",
        "label": "s_tokenToPrice",
        "offset": 0,
        "slot": "9",
        "type": "t_mapping(t_uint256,t_int256)"
      }
    ],
    "types": {
      "t_address": {
        "encoding": "inplace",
        "label": "address",
        "numberOfBytes": "20"
      },
      "t_bool": {
        "encoding": "inplace",
        "label": "bool",
        "numberOfBytes": "1"
      },
      "t_int256": {
        "encoding": "inplace",
        "label": "int256",
        "numberOfBytes": "32"
      },
      "t_mapping(t_address,t_bool)": {
        "encoding": "mapping",
        "key": "t_address",
        "label": "mapping(address => bool)",
        "numberOfBytes": "32",
        "value": "t_bool"
      },
      "t_mapping(t_address,t_mapping(t_address,t_bool))": {
        "encoding": "mapping",
        "key": "t_address",
        "label": "mapping(address => mapping(address => bool))",
        "numberOfBytes": "32",
        "value": "t_mapping(t_address,t_bool)"
      },
      "t_mapping(t_address,t_uint256)": {
        "encoding": "mapping",
        "key": "t_address",
        "label": "mapping(address => uint256)",
        "numberOfBytes": "32",
        "value": "t_uint256"
      },
      "t_mapping(t_uint256,t_address)": {
        "encoding": "mapping",
        "key": "t_uint256",
        "label": "mapping(uint256 => address)",
        "numberOfBytes": "32",
        "value": "t_address"
      },
      "t_mapping(t_uint256,t_int256)": {
        "encoding": "mapping",
        "key": "t_uint256",
        "label": "mapping(uint256 => int256)",
        "numberOfBytes": "32",
        "value": "t_int256"
      },
      "t_string_storage": {
        "encoding": "bytes",
        "label": "string",
        "numberOfBytes": "32"
      },
      "t_uint256": {
        "encoding": "inplace",
        "label": "uint256",
        "numberOfBytes": "32"
      }
    }
  }
}